{"abi":[{"inputs":[{"internalType":"uint256","name":"minimum","type":"uint256"},{"internalType":"address","name":"creator","type":"address"}],"stateMutability":"nonpayable","type":"constructor"},{"inputs":[{"internalType":"uint256","name":"index","type":"uint256"}],"name":"approveRequest","outputs":[],"stateMutability":"nonpayable","type":"function"},{"inputs":[{"internalType":"address","name":"","type":"address"}],"name":"approvers","outputs":[{"internalType":"bool","name":"","type":"bool"}],"stateMutability":"view","type":"function"},{"inputs":[],"name":"approversCount","outputs":[{"internalType":"uint256","name":"","type":"uint256"}],"stateMutability":"view","type":"function"},{"inputs":[],"name":"contribute","outputs":[],"stateMutability":"payable","type":"function"},{"inputs":[{"internalType":"string","name":"description","type":"string"},{"internalType":"uint256","name":"value","type":"uint256"},{"internalType":"address payable","name":"recipient","type":"address"}],"name":"createRequest","outputs":[],"stateMutability":"nonpayable","type":"function"},{"inputs":[{"internalType":"uint256","name":"index","type":"uint256"}],"name":"finalizeRequest","outputs":[],"stateMutability":"nonpayable","type":"function"},{"inputs":[],"name":"getSummary","outputs":[{"internalType":"uint256","name":"","type":"uint256"},{"internalType":"uint256","name":"","type":"uint256"},{"internalType":"uint256","name":"","type":"uint256"},{"internalType":"uint256","name":"","type":"uint256"},{"internalType":"address","name":"","type":"address"}],"stateMutability":"view","type":"function"},{"inputs":[],"name":"manager","outputs":[{"internalType":"address","name":"","type":"address"}],"stateMutability":"view","type":"function"},{"inputs":[],"name":"minimumContribution","outputs":[{"internalType":"uint256","name":"","type":"uint256"}],"stateMutability":"view","type":"function"},{"inputs":[],"name":"numRequest","outputs":[{"internalType":"uint256","name":"","type":"uint256"}],"stateMutability":"view","type":"function"},{"inputs":[{"internalType":"uint256","name":"","type":"uint256"}],"name":"requests","outputs":[{"internalType":"string","name":"description","type":"string"},{"internalType":"uint256","name":"value","type":"uint256"},{"internalType":"address payable","name":"recipient","type":"address"},{"internalType":"bool","name":"complete","type":"bool"},{"internalType":"uint256","name":"approvalCount","type":"uint256"}],"stateMutability":"view","type":"function"}],"evm":{"assembly":"    /* \"Campaign.sol\":437:2618  contract Campaign{... */\n  mstore(0x40, 0x80)\n    /* \"Campaign.sol\":994:1112  constructor(uint minimum, address creator){... */\n  callvalue\n  dup1\n  iszero\n  tag_1\n  jumpi\n  0x00\n  dup1\n  revert\ntag_1:\n  pop\n  mload(0x40)\n  sub(codesize, bytecodeSize)\n  dup1\n  bytecodeSize\n  dup4\n  codecopy\n  dup2\n  dup2\n  add\n  0x40\n  mstore\n  dup2\n  add\n  swap1\n  tag_2\n  swap2\n  swap1\n  tag_3\n  jump\t// in\ntag_2:\n    /* \"Campaign.sol\":1057:1064  creator */\n  dup1\n    /* \"Campaign.sol\":1047:1054  manager */\n  0x02\n  0x00\n    /* \"Campaign.sol\":1047:1064  manager = creator */\n  0x0100\n  exp\n  dup2\n  sload\n  dup2\n  0xffffffffffffffffffffffffffffffffffffffff\n  mul\n  not\n  and\n  swap1\n  dup4\n  0xffffffffffffffffffffffffffffffffffffffff\n  and\n  mul\n  or\n  swap1\n  sstore\n  pop\n    /* \"Campaign.sol\":1097:1104  minimum */\n  dup2\n    /* \"Campaign.sol\":1075:1094  minimumContribution */\n  0x03\n    /* \"Campaign.sol\":1075:1104  minimumContribution = minimum */\n  dup2\n  swap1\n  sstore\n  pop\n    /* \"Campaign.sol\":994:1112  constructor(uint minimum, address creator){... */\n  pop\n  pop\n    /* \"Campaign.sol\":437:2618  contract Campaign{... */\n  jump(tag_6)\n    /* \"#utility.yul\":88:205   */\ntag_8:\n    /* \"#utility.yul\":197:198   */\n  0x00\n    /* \"#utility.yul\":194:195   */\n  dup1\n    /* \"#utility.yul\":187:199   */\n  revert\n    /* \"#utility.yul\":334:411   */\ntag_10:\n    /* \"#utility.yul\":371:378   */\n  0x00\n    /* \"#utility.yul\":400:405   */\n  dup2\n    /* \"#utility.yul\":389:405   */\n  swap1\n  pop\n    /* \"#utility.yul\":334:411   */\n  swap2\n  swap1\n  pop\n  jump\t// out\n    /* \"#utility.yul\":417:539   */\ntag_11:\n    /* \"#utility.yul\":490:514   */\n  tag_23\n    /* \"#utility.yul\":508:513   */\n  dup2\n    /* \"#utility.yul\":490:514   */\n  tag_10\n  jump\t// in\ntag_23:\n    /* \"#utility.yul\":483:488   */\n  dup2\n    /* \"#utility.yul\":480:515   */\n  eq\n    /* \"#utility.yul\":470:533   */\n  tag_24\n  jumpi\n    /* \"#utility.yul\":529:530   */\n  0x00\n    /* \"#utility.yul\":526:527   */\n  dup1\n    /* \"#utility.yul\":519:531   */\n  revert\n    /* \"#utility.yul\":470:533   */\ntag_24:\n    /* \"#utility.yul\":417:539   */\n  pop\n  jump\t// out\n    /* \"#utility.yul\":545:688   */\ntag_12:\n    /* \"#utility.yul\":602:607   */\n  0x00\n    /* \"#utility.yul\":633:639   */\n  dup2\n    /* \"#utility.yul\":627:640   */\n  mload\n    /* \"#utility.yul\":618:640   */\n  swap1\n  pop\n    /* \"#utility.yul\":649:682   */\n  tag_26\n    /* \"#utility.yul\":676:681   */\n  dup2\n    /* \"#utility.yul\":649:682   */\n  tag_11\n  jump\t// in\ntag_26:\n    /* \"#utility.yul\":545:688   */\n  swap3\n  swap2\n  pop\n  pop\n  jump\t// out\n    /* \"#utility.yul\":694:820   */\ntag_13:\n    /* \"#utility.yul\":731:738   */\n  0x00\n    /* \"#utility.yul\":771:813   */\n  0xffffffffffffffffffffffffffffffffffffffff\n    /* \"#utility.yul\":764:769   */\n  dup3\n    /* \"#utility.yul\":760:814   */\n  and\n    /* \"#utility.yul\":749:814   */\n  swap1\n  pop\n    /* \"#utility.yul\":694:820   */\n  swap2\n  swap1\n  pop\n  jump\t// out\n    /* \"#utility.yul\":826:922   */\ntag_14:\n    /* \"#utility.yul\":863:870   */\n  0x00\n    /* \"#utility.yul\":892:916   */\n  tag_29\n    /* \"#utility.yul\":910:915   */\n  dup3\n    /* \"#utility.yul\":892:916   */\n  tag_13\n  jump\t// in\ntag_29:\n    /* \"#utility.yul\":881:916   */\n  swap1\n  pop\n    /* \"#utility.yul\":826:922   */\n  swap2\n  swap1\n  pop\n  jump\t// out\n    /* \"#utility.yul\":928:1050   */\ntag_15:\n    /* \"#utility.yul\":1001:1025   */\n  tag_31\n    /* \"#utility.yul\":1019:1024   */\n  dup2\n    /* \"#utility.yul\":1001:1025   */\n  tag_14\n  jump\t// in\ntag_31:\n    /* \"#utility.yul\":994:999   */\n  dup2\n    /* \"#utility.yul\":991:1026   */\n  eq\n    /* \"#utility.yul\":981:1044   */\n  tag_32\n  jumpi\n    /* \"#utility.yul\":1040:1041   */\n  0x00\n    /* \"#utility.yul\":1037:1038   */\n  dup1\n    /* \"#utility.yul\":1030:1042   */\n  revert\n    /* \"#utility.yul\":981:1044   */\ntag_32:\n    /* \"#utility.yul\":928:1050   */\n  pop\n  jump\t// out\n    /* \"#utility.yul\":1056:1199   */\ntag_16:\n    /* \"#utility.yul\":1113:1118   */\n  0x00\n    /* \"#utility.yul\":1144:1150   */\n  dup2\n    /* \"#utility.yul\":1138:1151   */\n  mload\n    /* \"#utility.yul\":1129:1151   */\n  swap1\n  pop\n    /* \"#utility.yul\":1160:1193   */\n  tag_34\n    /* \"#utility.yul\":1187:1192   */\n  dup2\n    /* \"#utility.yul\":1160:1193   */\n  tag_15\n  jump\t// in\ntag_34:\n    /* \"#utility.yul\":1056:1199   */\n  swap3\n  swap2\n  pop\n  pop\n  jump\t// out\n    /* \"#utility.yul\":1205:1712   */\ntag_3:\n    /* \"#utility.yul\":1284:1290   */\n  0x00\n    /* \"#utility.yul\":1292:1298   */\n  dup1\n    /* \"#utility.yul\":1341:1343   */\n  0x40\n    /* \"#utility.yul\":1329:1338   */\n  dup4\n    /* \"#utility.yul\":1320:1327   */\n  dup6\n    /* \"#utility.yul\":1316:1339   */\n  sub\n    /* \"#utility.yul\":1312:1344   */\n  slt\n    /* \"#utility.yul\":1309:1428   */\n  iszero\n  tag_36\n  jumpi\n    /* \"#utility.yul\":1347:1426   */\n  tag_37\n  tag_8\n  jump\t// in\ntag_37:\n    /* \"#utility.yul\":1309:1428   */\ntag_36:\n    /* \"#utility.yul\":1467:1468   */\n  0x00\n    /* \"#utility.yul\":1492:1556   */\n  tag_38\n    /* \"#utility.yul\":1548:1555   */\n  dup6\n    /* \"#utility.yul\":1539:1545   */\n  dup3\n    /* \"#utility.yul\":1528:1537   */\n  dup7\n    /* \"#utility.yul\":1524:1546   */\n  add\n    /* \"#utility.yul\":1492:1556   */\n  tag_12\n  jump\t// in\ntag_38:\n    /* \"#utility.yul\":1482:1556   */\n  swap3\n  pop\n    /* \"#utility.yul\":1438:1566   */\n  pop\n    /* \"#utility.yul\":1605:1607   */\n  0x20\n    /* \"#utility.yul\":1631:1695   */\n  tag_39\n    /* \"#utility.yul\":1687:1694   */\n  dup6\n    /* \"#utility.yul\":1678:1684   */\n  dup3\n    /* \"#utility.yul\":1667:1676   */\n  dup7\n    /* \"#utility.yul\":1663:1685   */\n  add\n    /* \"#utility.yul\":1631:1695   */\n  tag_16\n  jump\t// in\ntag_39:\n    /* \"#utility.yul\":1621:1695   */\n  swap2\n  pop\n    /* \"#utility.yul\":1576:1705   */\n  pop\n    /* \"#utility.yul\":1205:1712   */\n  swap3\n  pop\n  swap3\n  swap1\n  pop\n  jump\t// out\n    /* \"Campaign.sol\":437:2618  contract Campaign{... */\ntag_6:\n  dataSize(sub_0)\n  dup1\n  dataOffset(sub_0)\n  0x00\n  codecopy\n  0x00\n  return\nstop\n\nsub_0: assembly {\n        /* \"Campaign.sol\":437:2618  contract Campaign{... */\n      mstore(0x40, 0x80)\n      jumpi(tag_1, lt(calldatasize, 0x04))\n      shr(0xe0, calldataload(0x00))\n      dup1\n      0x82fde093\n      gt\n      tag_13\n      jumpi\n      dup1\n      0x82fde093\n      eq\n      tag_7\n      jumpi\n      dup1\n      0x8a9cfd55\n      eq\n      tag_8\n      jumpi\n      dup1\n      0x937e09b1\n      eq\n      tag_9\n      jumpi\n      dup1\n      0xb1b16431\n      eq\n      tag_10\n      jumpi\n      dup1\n      0xd7bb99ba\n      eq\n      tag_11\n      jumpi\n      dup1\n      0xd7d1bbdb\n      eq\n      tag_12\n      jumpi\n      jump(tag_1)\n    tag_13:\n      dup1\n      0x03441006\n      eq\n      tag_2\n      jumpi\n      dup1\n      0x0a144391\n      eq\n      tag_3\n      jumpi\n      dup1\n      0x4051ddac\n      eq\n      tag_4\n      jumpi\n      dup1\n      0x481c6a75\n      eq\n      tag_5\n      jumpi\n      dup1\n      0x81d12c58\n      eq\n      tag_6\n      jumpi\n    tag_1:\n      0x00\n      dup1\n      revert\n        /* \"Campaign.sol\":2030:2334  function finalizeRequest(uint index) public restricted {... */\n    tag_2:\n      callvalue\n      dup1\n      iszero\n      tag_14\n      jumpi\n      0x00\n      dup1\n      revert\n    tag_14:\n      pop\n      tag_15\n      0x04\n      dup1\n      calldatasize\n      sub\n      dup2\n      add\n      swap1\n      tag_16\n      swap2\n      swap1\n      tag_17\n      jump\t// in\n    tag_16:\n      tag_18\n      jump\t// in\n    tag_15:\n      stop\n        /* \"Campaign.sol\":821:862  mapping(address => bool) public approvers */\n    tag_3:\n      callvalue\n      dup1\n      iszero\n      tag_19\n      jumpi\n      0x00\n      dup1\n      revert\n    tag_19:\n      pop\n      tag_20\n      0x04\n      dup1\n      calldatasize\n      sub\n      dup2\n      add\n      swap1\n      tag_21\n      swap2\n      swap1\n      tag_22\n      jump\t// in\n    tag_21:\n      tag_23\n      jump\t// in\n    tag_20:\n      mload(0x40)\n      tag_24\n      swap2\n      swap1\n      tag_25\n      jump\t// in\n    tag_24:\n      mload(0x40)\n      dup1\n      swap2\n      sub\n      swap1\n      return\n        /* \"Campaign.sol\":2342:2615  function getSummary() public view returns(... */\n    tag_4:\n      callvalue\n      dup1\n      iszero\n      tag_26\n      jumpi\n      0x00\n      dup1\n      revert\n    tag_26:\n      pop\n      tag_27\n      tag_28\n      jump\t// in\n    tag_27:\n      mload(0x40)\n      tag_29\n      swap6\n      swap5\n      swap4\n      swap3\n      swap2\n      swap1\n      tag_30\n      jump\t// in\n    tag_29:\n      mload(0x40)\n      dup1\n      swap2\n      sub\n      swap1\n      return\n        /* \"Campaign.sol\":754:776  address public manager */\n    tag_5:\n      callvalue\n      dup1\n      iszero\n      tag_31\n      jumpi\n      0x00\n      dup1\n      revert\n    tag_31:\n      pop\n      tag_32\n      tag_33\n      jump\t// in\n    tag_32:\n      mload(0x40)\n      tag_34\n      swap2\n      swap1\n      tag_35\n      jump\t// in\n    tag_34:\n      mload(0x40)\n      dup1\n      swap2\n      sub\n      swap1\n      return\n        /* \"Campaign.sol\":705:745  mapping(uint => Request) public requests */\n    tag_6:\n      callvalue\n      dup1\n      iszero\n      tag_36\n      jumpi\n      0x00\n      dup1\n      revert\n    tag_36:\n      pop\n      tag_37\n      0x04\n      dup1\n      calldatasize\n      sub\n      dup2\n      add\n      swap1\n      tag_38\n      swap2\n      swap1\n      tag_17\n      jump\t// in\n    tag_38:\n      tag_39\n      jump\t// in\n    tag_37:\n      mload(0x40)\n      tag_40\n      swap6\n      swap5\n      swap4\n      swap3\n      swap2\n      swap1\n      tag_41\n      jump\t// in\n    tag_40:\n      mload(0x40)\n      dup1\n      swap2\n      sub\n      swap1\n      return\n        /* \"Campaign.sol\":869:895  uint public approversCount */\n    tag_7:\n      callvalue\n      dup1\n      iszero\n      tag_42\n      jumpi\n      0x00\n      dup1\n      revert\n    tag_42:\n      pop\n      tag_43\n      tag_44\n      jump\t// in\n    tag_43:\n      mload(0x40)\n      tag_45\n      swap2\n      swap1\n      tag_46\n      jump\t// in\n    tag_45:\n      mload(0x40)\n      dup1\n      swap2\n      sub\n      swap1\n      return\n        /* \"Campaign.sol\":1290:1720  function createRequest(string memory description, uint value, address payable recipient) ... */\n    tag_8:\n      callvalue\n      dup1\n      iszero\n      tag_47\n      jumpi\n      0x00\n      dup1\n      revert\n    tag_47:\n      pop\n      tag_48\n      0x04\n      dup1\n      calldatasize\n      sub\n      dup2\n      add\n      swap1\n      tag_49\n      swap2\n      swap1\n      tag_50\n      jump\t// in\n    tag_49:\n      tag_51\n      jump\t// in\n    tag_48:\n      stop\n        /* \"Campaign.sol\":783:814  uint public minimumContribution */\n    tag_9:\n      callvalue\n      dup1\n      iszero\n      tag_52\n      jumpi\n      0x00\n      dup1\n      revert\n    tag_52:\n      pop\n      tag_53\n      tag_54\n      jump\t// in\n    tag_53:\n      mload(0x40)\n      tag_55\n      swap2\n      swap1\n      tag_46\n      jump\t// in\n    tag_55:\n      mload(0x40)\n      dup1\n      swap2\n      sub\n      swap1\n      return\n        /* \"Campaign.sol\":676:698  uint public numRequest */\n    tag_10:\n      callvalue\n      dup1\n      iszero\n      tag_56\n      jumpi\n      0x00\n      dup1\n      revert\n    tag_56:\n      pop\n      tag_57\n      tag_58\n      jump\t// in\n    tag_57:\n      mload(0x40)\n      tag_59\n      swap2\n      swap1\n      tag_46\n      jump\t// in\n    tag_59:\n      mload(0x40)\n      dup1\n      swap2\n      sub\n      swap1\n      return\n        /* \"Campaign.sol\":1120:1282  function contribute() public payable{... */\n    tag_11:\n      tag_60\n      tag_61\n      jump\t// in\n    tag_60:\n      stop\n        /* \"Campaign.sol\":1742:2022  function approveRequest(uint index) public{... */\n    tag_12:\n      callvalue\n      dup1\n      iszero\n      tag_62\n      jumpi\n      0x00\n      dup1\n      revert\n    tag_62:\n      pop\n      tag_63\n      0x04\n      dup1\n      calldatasize\n      sub\n      dup2\n      add\n      swap1\n      tag_64\n      swap2\n      swap1\n      tag_17\n      jump\t// in\n    tag_64:\n      tag_65\n      jump\t// in\n    tag_63:\n      stop\n        /* \"Campaign.sol\":2030:2334  function finalizeRequest(uint index) public restricted {... */\n    tag_18:\n        /* \"Campaign.sol\":958:965  manager */\n      0x02\n      0x00\n      swap1\n      sload\n      swap1\n      0x0100\n      exp\n      swap1\n      div\n      0xffffffffffffffffffffffffffffffffffffffff\n      and\n        /* \"Campaign.sol\":944:965  msg.sender == manager */\n      0xffffffffffffffffffffffffffffffffffffffff\n      and\n        /* \"Campaign.sol\":944:954  msg.sender */\n      caller\n        /* \"Campaign.sol\":944:965  msg.sender == manager */\n      0xffffffffffffffffffffffffffffffffffffffff\n      and\n      eq\n        /* \"Campaign.sol\":936:966  require(msg.sender == manager) */\n      tag_67\n      jumpi\n      0x00\n      dup1\n      revert\n    tag_67:\n        /* \"Campaign.sol\":2096:2119  Request storage request */\n      0x00\n        /* \"Campaign.sol\":2122:2130  requests */\n      0x01\n        /* \"Campaign.sol\":2122:2137  requests[index] */\n      0x00\n        /* \"Campaign.sol\":2131:2136  index */\n      dup4\n        /* \"Campaign.sol\":2122:2137  requests[index] */\n      dup2\n      mstore\n      0x20\n      add\n      swap1\n      dup2\n      mstore\n      0x20\n      add\n      0x00\n      keccak256\n        /* \"Campaign.sol\":2096:2137  Request storage request = requests[index] */\n      swap1\n      pop\n        /* \"Campaign.sol\":2157:2164  request */\n      dup1\n        /* \"Campaign.sol\":2157:2173  request.complete */\n      0x02\n      add\n      0x14\n      swap1\n      sload\n      swap1\n      0x0100\n      exp\n      swap1\n      div\n      0xff\n      and\n        /* \"Campaign.sol\":2156:2173  !request.complete */\n      iszero\n        /* \"Campaign.sol\":2148:2174  require(!request.complete) */\n      tag_69\n      jumpi\n      0x00\n      dup1\n      revert\n    tag_69:\n        /* \"Campaign.sol\":2235:2236  2 */\n      0x02\n        /* \"Campaign.sol\":2218:2232  approversCount */\n      sload(0x05)\n        /* \"Campaign.sol\":2218:2236  approversCount / 2 */\n      tag_70\n      swap2\n      swap1\n      tag_71\n      jump\t// in\n    tag_70:\n        /* \"Campaign.sol\":2193:2200  request */\n      dup2\n        /* \"Campaign.sol\":2193:2214  request.approvalCount */\n      0x03\n      add\n      sload\n        /* \"Campaign.sol\":2193:2237  request.approvalCount > (approversCount / 2) */\n      gt\n        /* \"Campaign.sol\":2185:2238  require(request.approvalCount > (approversCount / 2)) */\n      tag_72\n      jumpi\n      0x00\n      dup1\n      revert\n    tag_72:\n        /* \"Campaign.sol\":2251:2258  request */\n      dup1\n        /* \"Campaign.sol\":2251:2268  request.recipient */\n      0x02\n      add\n      0x00\n      swap1\n      sload\n      swap1\n      0x0100\n      exp\n      swap1\n      div\n      0xffffffffffffffffffffffffffffffffffffffff\n      and\n        /* \"Campaign.sol\":2251:2277  request.recipient.transfer */\n      0xffffffffffffffffffffffffffffffffffffffff\n      and\n        /* \"Campaign.sol\":2251:2292  request.recipient.transfer(request.value) */\n      0x08fc\n        /* \"Campaign.sol\":2278:2285  request */\n      dup3\n        /* \"Campaign.sol\":2278:2291  request.value */\n      0x01\n      add\n      sload\n        /* \"Campaign.sol\":2251:2292  request.recipient.transfer(request.value) */\n      swap1\n      dup2\n      iszero\n      mul\n      swap1\n      mload(0x40)\n      0x00\n      mload(0x40)\n      dup1\n      dup4\n      sub\n      dup2\n      dup6\n      dup9\n      dup9\n      call\n      swap4\n      pop\n      pop\n      pop\n      pop\n      iszero\n      dup1\n      iszero\n      tag_74\n      jumpi\n      returndatasize\n      0x00\n      dup1\n      returndatacopy\n      revert(0x00, returndatasize)\n    tag_74:\n      pop\n        /* \"Campaign.sol\":2322:2326  true */\n      0x01\n        /* \"Campaign.sol\":2303:2310  request */\n      dup2\n        /* \"Campaign.sol\":2303:2319  request.complete */\n      0x02\n      add\n      0x14\n        /* \"Campaign.sol\":2303:2326  request.complete = true */\n      0x0100\n      exp\n      dup2\n      sload\n      dup2\n      0xff\n      mul\n      not\n      and\n      swap1\n      dup4\n      iszero\n      iszero\n      mul\n      or\n      swap1\n      sstore\n      pop\n        /* \"Campaign.sol\":2085:2334  {... */\n      pop\n        /* \"Campaign.sol\":2030:2334  function finalizeRequest(uint index) public restricted {... */\n      pop\n      jump\t// out\n        /* \"Campaign.sol\":821:862  mapping(address => bool) public approvers */\n    tag_23:\n      mstore(0x20, 0x04)\n      dup1\n      0x00\n      mstore\n      keccak256(0x00, 0x40)\n      0x00\n      swap2\n      pop\n      sload\n      swap1\n      0x0100\n      exp\n      swap1\n      div\n      0xff\n      and\n      dup2\n      jump\t// out\n        /* \"Campaign.sol\":2342:2615  function getSummary() public view returns(... */\n    tag_28:\n        /* \"Campaign.sol\":2394:2398  uint */\n      0x00\n        /* \"Campaign.sol\":2400:2404  uint */\n      dup1\n        /* \"Campaign.sol\":2406:2410  uint */\n      0x00\n        /* \"Campaign.sol\":2412:2416  uint */\n      dup1\n        /* \"Campaign.sol\":2418:2425  address */\n      0x00\n        /* \"Campaign.sol\":2465:2484  minimumContribution */\n      sload(0x03)\n        /* \"Campaign.sol\":2499:2520  address(this).balance */\n      selfbalance\n        /* \"Campaign.sol\":2535:2545  numRequest */\n      sload(0x00)\n        /* \"Campaign.sol\":2560:2574  approversCount */\n      sload(0x05)\n        /* \"Campaign.sol\":2589:2596  manager */\n      0x02\n      0x00\n      swap1\n      sload\n      swap1\n      0x0100\n      exp\n      swap1\n      div\n      0xffffffffffffffffffffffffffffffffffffffff\n      and\n        /* \"Campaign.sol\":2444:2607  return(... */\n      swap5\n      pop\n      swap5\n      pop\n      swap5\n      pop\n      swap5\n      pop\n      swap5\n      pop\n        /* \"Campaign.sol\":2342:2615  function getSummary() public view returns(... */\n      swap1\n      swap2\n      swap3\n      swap4\n      swap5\n      jump\t// out\n        /* \"Campaign.sol\":754:776  address public manager */\n    tag_33:\n      0x02\n      0x00\n      swap1\n      sload\n      swap1\n      0x0100\n      exp\n      swap1\n      div\n      0xffffffffffffffffffffffffffffffffffffffff\n      and\n      dup2\n      jump\t// out\n        /* \"Campaign.sol\":705:745  mapping(uint => Request) public requests */\n    tag_39:\n      mstore(0x20, 0x01)\n      dup1\n      0x00\n      mstore\n      keccak256(0x00, 0x40)\n      0x00\n      swap2\n      pop\n      swap1\n      pop\n      dup1\n      0x00\n      add\n      dup1\n      sload\n      tag_76\n      swap1\n      tag_77\n      jump\t// in\n    tag_76:\n      dup1\n      0x1f\n      add\n      0x20\n      dup1\n      swap2\n      div\n      mul\n      0x20\n      add\n      mload(0x40)\n      swap1\n      dup2\n      add\n      0x40\n      mstore\n      dup1\n      swap3\n      swap2\n      swap1\n      dup2\n      dup2\n      mstore\n      0x20\n      add\n      dup3\n      dup1\n      sload\n      tag_78\n      swap1\n      tag_77\n      jump\t// in\n    tag_78:\n      dup1\n      iszero\n      tag_79\n      jumpi\n      dup1\n      0x1f\n      lt\n      tag_80\n      jumpi\n      0x0100\n      dup1\n      dup4\n      sload\n      div\n      mul\n      dup4\n      mstore\n      swap2\n      0x20\n      add\n      swap2\n      jump(tag_79)\n    tag_80:\n      dup3\n      add\n      swap2\n      swap1\n      0x00\n      mstore\n      keccak256(0x00, 0x20)\n      swap1\n    tag_81:\n      dup2\n      sload\n      dup2\n      mstore\n      swap1\n      0x01\n      add\n      swap1\n      0x20\n      add\n      dup1\n      dup4\n      gt\n      tag_81\n      jumpi\n      dup3\n      swap1\n      sub\n      0x1f\n      and\n      dup3\n      add\n      swap2\n    tag_79:\n      pop\n      pop\n      pop\n      pop\n      pop\n      swap1\n      dup1\n      0x01\n      add\n      sload\n      swap1\n      dup1\n      0x02\n      add\n      0x00\n      swap1\n      sload\n      swap1\n      0x0100\n      exp\n      swap1\n      div\n      0xffffffffffffffffffffffffffffffffffffffff\n      and\n      swap1\n      dup1\n      0x02\n      add\n      0x14\n      swap1\n      sload\n      swap1\n      0x0100\n      exp\n      swap1\n      div\n      0xff\n      and\n      swap1\n      dup1\n      0x03\n      add\n      sload\n      swap1\n      pop\n      dup6\n      jump\t// out\n        /* \"Campaign.sol\":869:895  uint public approversCount */\n    tag_44:\n      sload(0x05)\n      dup2\n      jump\t// out\n        /* \"Campaign.sol\":1290:1720  function createRequest(string memory description, uint value, address payable recipient) ... */\n    tag_51:\n        /* \"Campaign.sol\":958:965  manager */\n      0x02\n      0x00\n      swap1\n      sload\n      swap1\n      0x0100\n      exp\n      swap1\n      div\n      0xffffffffffffffffffffffffffffffffffffffff\n      and\n        /* \"Campaign.sol\":944:965  msg.sender == manager */\n      0xffffffffffffffffffffffffffffffffffffffff\n      and\n        /* \"Campaign.sol\":944:954  msg.sender */\n      caller\n        /* \"Campaign.sol\":944:965  msg.sender == manager */\n      0xffffffffffffffffffffffffffffffffffffffff\n      and\n      eq\n        /* \"Campaign.sol\":936:966  require(msg.sender == manager) */\n      tag_83\n      jumpi\n      0x00\n      dup1\n      revert\n    tag_83:\n        /* \"Campaign.sol\":1421:1447  Request storage newRequest */\n      0x00\n        /* \"Campaign.sol\":1450:1458  requests */\n      0x01\n        /* \"Campaign.sol\":1450:1472  requests[numRequest++] */\n      0x00\n        /* \"Campaign.sol\":1459:1469  numRequest */\n      dup1\n      0x00\n        /* \"Campaign.sol\":1459:1471  numRequest++ */\n      dup2\n      sload\n      dup1\n      swap3\n      swap2\n      swap1\n      tag_85\n      swap1\n      tag_86\n      jump\t// in\n    tag_85:\n      swap2\n      swap1\n      pop\n      sstore\n        /* \"Campaign.sol\":1450:1472  requests[numRequest++] */\n      dup2\n      mstore\n      0x20\n      add\n      swap1\n      dup2\n      mstore\n      0x20\n      add\n      0x00\n      keccak256\n        /* \"Campaign.sol\":1421:1472  Request storage newRequest = requests[numRequest++] */\n      swap1\n      pop\n        /* \"Campaign.sol\":1512:1523  description */\n      dup4\n        /* \"Campaign.sol\":1487:1497  newRequest */\n      dup2\n        /* \"Campaign.sol\":1487:1509  newRequest.description */\n      0x00\n      add\n        /* \"Campaign.sol\":1487:1523  newRequest.description = description */\n      swap1\n      dup2\n      tag_87\n      swap2\n      swap1\n      tag_88\n      jump\t// in\n    tag_87:\n      pop\n        /* \"Campaign.sol\":1557:1562  value */\n      dup3\n        /* \"Campaign.sol\":1538:1548  newRequest */\n      dup2\n        /* \"Campaign.sol\":1538:1554  newRequest.value */\n      0x01\n      add\n        /* \"Campaign.sol\":1538:1562  newRequest.value = value */\n      dup2\n      swap1\n      sstore\n      pop\n        /* \"Campaign.sol\":1600:1609  recipient */\n      dup2\n        /* \"Campaign.sol\":1577:1587  newRequest */\n      dup2\n        /* \"Campaign.sol\":1577:1597  newRequest.recipient */\n      0x02\n      add\n      0x00\n        /* \"Campaign.sol\":1577:1609  newRequest.recipient = recipient */\n      0x0100\n      exp\n      dup2\n      sload\n      dup2\n      0xffffffffffffffffffffffffffffffffffffffff\n      mul\n      not\n      and\n      swap1\n      dup4\n      0xffffffffffffffffffffffffffffffffffffffff\n      and\n      mul\n      or\n      swap1\n      sstore\n      pop\n        /* \"Campaign.sol\":1646:1651  false */\n      0x00\n        /* \"Campaign.sol\":1624:1634  newRequest */\n      dup2\n        /* \"Campaign.sol\":1624:1643  newRequest.complete */\n      0x02\n      add\n      0x14\n        /* \"Campaign.sol\":1624:1651  newRequest.complete = false */\n      0x0100\n      exp\n      dup2\n      sload\n      dup2\n      0xff\n      mul\n      not\n      and\n      swap1\n      dup4\n      iszero\n      iszero\n      mul\n      or\n      swap1\n      sstore\n      pop\n        /* \"Campaign.sol\":1693:1694  0 */\n      0x00\n        /* \"Campaign.sol\":1666:1676  newRequest */\n      dup2\n        /* \"Campaign.sol\":1666:1690  newRequest.approvalCount */\n      0x03\n      add\n        /* \"Campaign.sol\":1666:1694  newRequest.approvalCount = 0 */\n      dup2\n      swap1\n      sstore\n      pop\n        /* \"Campaign.sol\":1406:1720  {... */\n      pop\n        /* \"Campaign.sol\":1290:1720  function createRequest(string memory description, uint value, address payable recipient) ... */\n      pop\n      pop\n      pop\n      jump\t// out\n        /* \"Campaign.sol\":783:814  uint public minimumContribution */\n    tag_54:\n      sload(0x03)\n      dup2\n      jump\t// out\n        /* \"Campaign.sol\":676:698  uint public numRequest */\n    tag_58:\n      sload(0x00)\n      dup2\n      jump\t// out\n        /* \"Campaign.sol\":1120:1282  function contribute() public payable{... */\n    tag_61:\n        /* \"Campaign.sol\":1188:1207  minimumContribution */\n      sload(0x03)\n        /* \"Campaign.sol\":1175:1184  msg.value */\n      callvalue\n        /* \"Campaign.sol\":1175:1207  msg.value >= minimumContribution */\n      lt\n      iszero\n        /* \"Campaign.sol\":1167:1208  require(msg.value >= minimumContribution) */\n      tag_90\n      jumpi\n      0x00\n      dup1\n      revert\n    tag_90:\n        /* \"Campaign.sol\":1243:1247  true */\n      0x01\n        /* \"Campaign.sol\":1219:1228  approvers */\n      0x04\n        /* \"Campaign.sol\":1219:1240  approvers[msg.sender] */\n      0x00\n        /* \"Campaign.sol\":1229:1239  msg.sender */\n      caller\n        /* \"Campaign.sol\":1219:1240  approvers[msg.sender] */\n      0xffffffffffffffffffffffffffffffffffffffff\n      and\n      0xffffffffffffffffffffffffffffffffffffffff\n      and\n      dup2\n      mstore\n      0x20\n      add\n      swap1\n      dup2\n      mstore\n      0x20\n      add\n      0x00\n      keccak256\n      0x00\n        /* \"Campaign.sol\":1219:1247  approvers[msg.sender] = true */\n      0x0100\n      exp\n      dup2\n      sload\n      dup2\n      0xff\n      mul\n      not\n      and\n      swap1\n      dup4\n      iszero\n      iszero\n      mul\n      or\n      swap1\n      sstore\n      pop\n        /* \"Campaign.sol\":1258:1272  approversCount */\n      0x05\n      0x00\n        /* \"Campaign.sol\":1258:1274  approversCount++ */\n      dup2\n      sload\n      dup1\n      swap3\n      swap2\n      swap1\n      tag_91\n      swap1\n      tag_86\n      jump\t// in\n    tag_91:\n      swap2\n      swap1\n      pop\n      sstore\n      pop\n        /* \"Campaign.sol\":1120:1282  function contribute() public payable{... */\n      jump\t// out\n        /* \"Campaign.sol\":1742:2022  function approveRequest(uint index) public{... */\n    tag_65:\n        /* \"Campaign.sol\":1795:1818  Request storage request */\n      0x00\n        /* \"Campaign.sol\":1821:1829  requests */\n      0x01\n        /* \"Campaign.sol\":1821:1836  requests[index] */\n      0x00\n        /* \"Campaign.sol\":1830:1835  index */\n      dup4\n        /* \"Campaign.sol\":1821:1836  requests[index] */\n      dup2\n      mstore\n      0x20\n      add\n      swap1\n      dup2\n      mstore\n      0x20\n      add\n      0x00\n      keccak256\n        /* \"Campaign.sol\":1795:1836  Request storage request = requests[index] */\n      swap1\n      pop\n        /* \"Campaign.sol\":1857:1866  approvers */\n      0x04\n        /* \"Campaign.sol\":1857:1878  approvers[msg.sender] */\n      0x00\n        /* \"Campaign.sol\":1867:1877  msg.sender */\n      caller\n        /* \"Campaign.sol\":1857:1878  approvers[msg.sender] */\n      0xffffffffffffffffffffffffffffffffffffffff\n      and\n      0xffffffffffffffffffffffffffffffffffffffff\n      and\n      dup2\n      mstore\n      0x20\n      add\n      swap1\n      dup2\n      mstore\n      0x20\n      add\n      0x00\n      keccak256\n      0x00\n      swap1\n      sload\n      swap1\n      0x0100\n      exp\n      swap1\n      div\n      0xff\n      and\n        /* \"Campaign.sol\":1849:1879  require(approvers[msg.sender]) */\n      tag_93\n      jumpi\n      0x00\n      dup1\n      revert\n    tag_93:\n        /* \"Campaign.sol\":1899:1906  request */\n      dup1\n        /* \"Campaign.sol\":1899:1916  request.approvals */\n      0x04\n      add\n        /* \"Campaign.sol\":1899:1928  request.approvals[msg.sender] */\n      0x00\n        /* \"Campaign.sol\":1917:1927  msg.sender */\n      caller\n        /* \"Campaign.sol\":1899:1928  request.approvals[msg.sender] */\n      0xffffffffffffffffffffffffffffffffffffffff\n      and\n      0xffffffffffffffffffffffffffffffffffffffff\n      and\n      dup2\n      mstore\n      0x20\n      add\n      swap1\n      dup2\n      mstore\n      0x20\n      add\n      0x00\n      keccak256\n      0x00\n      swap1\n      sload\n      swap1\n      0x0100\n      exp\n      swap1\n      div\n      0xff\n      and\n        /* \"Campaign.sol\":1898:1928  !request.approvals[msg.sender] */\n      iszero\n        /* \"Campaign.sol\":1890:1929  require(!request.approvals[msg.sender]) */\n      tag_94\n      jumpi\n      0x00\n      dup1\n      revert\n    tag_94:\n        /* \"Campaign.sol\":1974:1978  true */\n      0x01\n        /* \"Campaign.sol\":1942:1949  request */\n      dup2\n        /* \"Campaign.sol\":1942:1959  request.approvals */\n      0x04\n      add\n        /* \"Campaign.sol\":1942:1971  request.approvals[msg.sender] */\n      0x00\n        /* \"Campaign.sol\":1960:1970  msg.sender */\n      caller\n        /* \"Campaign.sol\":1942:1971  request.approvals[msg.sender] */\n      0xffffffffffffffffffffffffffffffffffffffff\n      and\n      0xffffffffffffffffffffffffffffffffffffffff\n      and\n      dup2\n      mstore\n      0x20\n      add\n      swap1\n      dup2\n      mstore\n      0x20\n      add\n      0x00\n      keccak256\n      0x00\n        /* \"Campaign.sol\":1942:1978  request.approvals[msg.sender] = true */\n      0x0100\n      exp\n      dup2\n      sload\n      dup2\n      0xff\n      mul\n      not\n      and\n      swap1\n      dup4\n      iszero\n      iszero\n      mul\n      or\n      swap1\n      sstore\n      pop\n        /* \"Campaign.sol\":1989:1996  request */\n      dup1\n        /* \"Campaign.sol\":1989:2010  request.approvalCount */\n      0x03\n      add\n      0x00\n        /* \"Campaign.sol\":1989:2012  request.approvalCount++ */\n      dup2\n      sload\n      dup1\n      swap3\n      swap2\n      swap1\n      tag_95\n      swap1\n      tag_86\n      jump\t// in\n    tag_95:\n      swap2\n      swap1\n      pop\n      sstore\n      pop\n        /* \"Campaign.sol\":1784:2022  {... */\n      pop\n        /* \"Campaign.sol\":1742:2022  function approveRequest(uint index) public{... */\n      pop\n      jump\t// out\n        /* \"#utility.yul\":7:82   */\n    tag_96:\n        /* \"#utility.yul\":40:46   */\n      0x00\n        /* \"#utility.yul\":73:75   */\n      0x40\n        /* \"#utility.yul\":67:76   */\n      mload\n        /* \"#utility.yul\":57:76   */\n      swap1\n      pop\n        /* \"#utility.yul\":7:82   */\n      swap1\n      jump\t// out\n        /* \"#utility.yul\":88:205   */\n    tag_97:\n        /* \"#utility.yul\":197:198   */\n      0x00\n        /* \"#utility.yul\":194:195   */\n      dup1\n        /* \"#utility.yul\":187:199   */\n      revert\n        /* \"#utility.yul\":211:328   */\n    tag_98:\n        /* \"#utility.yul\":320:321   */\n      0x00\n        /* \"#utility.yul\":317:318   */\n      dup1\n        /* \"#utility.yul\":310:322   */\n      revert\n        /* \"#utility.yul\":334:411   */\n    tag_99:\n        /* \"#utility.yul\":371:378   */\n      0x00\n        /* \"#utility.yul\":400:405   */\n      dup2\n        /* \"#utility.yul\":389:405   */\n      swap1\n      pop\n        /* \"#utility.yul\":334:411   */\n      swap2\n      swap1\n      pop\n      jump\t// out\n        /* \"#utility.yul\":417:539   */\n    tag_100:\n        /* \"#utility.yul\":490:514   */\n      tag_152\n        /* \"#utility.yul\":508:513   */\n      dup2\n        /* \"#utility.yul\":490:514   */\n      tag_99\n      jump\t// in\n    tag_152:\n        /* \"#utility.yul\":483:488   */\n      dup2\n        /* \"#utility.yul\":480:515   */\n      eq\n        /* \"#utility.yul\":470:533   */\n      tag_153\n      jumpi\n        /* \"#utility.yul\":529:530   */\n      0x00\n        /* \"#utility.yul\":526:527   */\n      dup1\n        /* \"#utility.yul\":519:531   */\n      revert\n        /* \"#utility.yul\":470:533   */\n    tag_153:\n        /* \"#utility.yul\":417:539   */\n      pop\n      jump\t// out\n        /* \"#utility.yul\":545:684   */\n    tag_101:\n        /* \"#utility.yul\":591:596   */\n      0x00\n        /* \"#utility.yul\":629:635   */\n      dup2\n        /* \"#utility.yul\":616:636   */\n      calldataload\n        /* \"#utility.yul\":607:636   */\n      swap1\n      pop\n        /* \"#utility.yul\":645:678   */\n      tag_155\n        /* \"#utility.yul\":672:677   */\n      dup2\n        /* \"#utility.yul\":645:678   */\n      tag_100\n      jump\t// in\n    tag_155:\n        /* \"#utility.yul\":545:684   */\n      swap3\n      swap2\n      pop\n      pop\n      jump\t// out\n        /* \"#utility.yul\":690:1019   */\n    tag_17:\n        /* \"#utility.yul\":749:755   */\n      0x00\n        /* \"#utility.yul\":798:800   */\n      0x20\n        /* \"#utility.yul\":786:795   */\n      dup3\n        /* \"#utility.yul\":777:784   */\n      dup5\n        /* \"#utility.yul\":773:796   */\n      sub\n        /* \"#utility.yul\":769:801   */\n      slt\n        /* \"#utility.yul\":766:885   */\n      iszero\n      tag_157\n      jumpi\n        /* \"#utility.yul\":804:883   */\n      tag_158\n      tag_97\n      jump\t// in\n    tag_158:\n        /* \"#utility.yul\":766:885   */\n    tag_157:\n        /* \"#utility.yul\":924:925   */\n      0x00\n        /* \"#utility.yul\":949:1002   */\n      tag_159\n        /* \"#utility.yul\":994:1001   */\n      dup5\n        /* \"#utility.yul\":985:991   */\n      dup3\n        /* \"#utility.yul\":974:983   */\n      dup6\n        /* \"#utility.yul\":970:992   */\n      add\n        /* \"#utility.yul\":949:1002   */\n      tag_101\n      jump\t// in\n    tag_159:\n        /* \"#utility.yul\":939:1002   */\n      swap2\n      pop\n        /* \"#utility.yul\":895:1012   */\n      pop\n        /* \"#utility.yul\":690:1019   */\n      swap3\n      swap2\n      pop\n      pop\n      jump\t// out\n        /* \"#utility.yul\":1025:1151   */\n    tag_102:\n        /* \"#utility.yul\":1062:1069   */\n      0x00\n        /* \"#utility.yul\":1102:1144   */\n      0xffffffffffffffffffffffffffffffffffffffff\n        /* \"#utility.yul\":1095:1100   */\n      dup3\n        /* \"#utility.yul\":1091:1145   */\n      and\n        /* \"#utility.yul\":1080:1145   */\n      swap1\n      pop\n        /* \"#utility.yul\":1025:1151   */\n      swap2\n      swap1\n      pop\n      jump\t// out\n        /* \"#utility.yul\":1157:1253   */\n    tag_103:\n        /* \"#utility.yul\":1194:1201   */\n      0x00\n        /* \"#utility.yul\":1223:1247   */\n      tag_162\n        /* \"#utility.yul\":1241:1246   */\n      dup3\n        /* \"#utility.yul\":1223:1247   */\n      tag_102\n      jump\t// in\n    tag_162:\n        /* \"#utility.yul\":1212:1247   */\n      swap1\n      pop\n        /* \"#utility.yul\":1157:1253   */\n      swap2\n      swap1\n      pop\n      jump\t// out\n        /* \"#utility.yul\":1259:1381   */\n    tag_104:\n        /* \"#utility.yul\":1332:1356   */\n      tag_164\n        /* \"#utility.yul\":1350:1355   */\n      dup2\n        /* \"#utility.yul\":1332:1356   */\n      tag_103\n      jump\t// in\n    tag_164:\n        /* \"#utility.yul\":1325:1330   */\n      dup2\n        /* \"#utility.yul\":1322:1357   */\n      eq\n        /* \"#utility.yul\":1312:1375   */\n      tag_165\n      jumpi\n        /* \"#utility.yul\":1371:1372   */\n      0x00\n        /* \"#utility.yul\":1368:1369   */\n      dup1\n        /* \"#utility.yul\":1361:1373   */\n      revert\n        /* \"#utility.yul\":1312:1375   */\n    tag_165:\n        /* \"#utility.yul\":1259:1381   */\n      pop\n      jump\t// out\n        /* \"#utility.yul\":1387:1526   */\n    tag_105:\n        /* \"#utility.yul\":1433:1438   */\n      0x00\n        /* \"#utility.yul\":1471:1477   */\n      dup2\n        /* \"#utility.yul\":1458:1478   */\n      calldataload\n        /* \"#utility.yul\":1449:1478   */\n      swap1\n      pop\n        /* \"#utility.yul\":1487:1520   */\n      tag_167\n        /* \"#utility.yul\":1514:1519   */\n      dup2\n        /* \"#utility.yul\":1487:1520   */\n      tag_104\n      jump\t// in\n    tag_167:\n        /* \"#utility.yul\":1387:1526   */\n      swap3\n      swap2\n      pop\n      pop\n      jump\t// out\n        /* \"#utility.yul\":1532:1861   */\n    tag_22:\n        /* \"#utility.yul\":1591:1597   */\n      0x00\n        /* \"#utility.yul\":1640:1642   */\n      0x20\n        /* \"#utility.yul\":1628:1637   */\n      dup3\n        /* \"#utility.yul\":1619:1626   */\n      dup5\n        /* \"#utility.yul\":1615:1638   */\n      sub\n        /* \"#utility.yul\":1611:1643   */\n      slt\n        /* \"#utility.yul\":1608:1727   */\n      iszero\n      tag_169\n      jumpi\n        /* \"#utility.yul\":1646:1725   */\n      tag_170\n      tag_97\n      jump\t// in\n    tag_170:\n        /* \"#utility.yul\":1608:1727   */\n    tag_169:\n        /* \"#utility.yul\":1766:1767   */\n      0x00\n        /* \"#utility.yul\":1791:1844   */\n      tag_171\n        /* \"#utility.yul\":1836:1843   */\n      dup5\n        /* \"#utility.yul\":1827:1833   */\n      dup3\n        /* \"#utility.yul\":1816:1825   */\n      dup6\n        /* \"#utility.yul\":1812:1834   */\n      add\n        /* \"#utility.yul\":1791:1844   */\n      tag_105\n      jump\t// in\n    tag_171:\n        /* \"#utility.yul\":1781:1844   */\n      swap2\n      pop\n        /* \"#utility.yul\":1737:1854   */\n      pop\n        /* \"#utility.yul\":1532:1861   */\n      swap3\n      swap2\n      pop\n      pop\n      jump\t// out\n        /* \"#utility.yul\":1867:1957   */\n    tag_106:\n        /* \"#utility.yul\":1901:1908   */\n      0x00\n        /* \"#utility.yul\":1944:1949   */\n      dup2\n        /* \"#utility.yul\":1937:1950   */\n      iszero\n        /* \"#utility.yul\":1930:1951   */\n      iszero\n        /* \"#utility.yul\":1919:1951   */\n      swap1\n      pop\n        /* \"#utility.yul\":1867:1957   */\n      swap2\n      swap1\n      pop\n      jump\t// out\n        /* \"#utility.yul\":1963:2072   */\n    tag_107:\n        /* \"#utility.yul\":2044:2065   */\n      tag_174\n        /* \"#utility.yul\":2059:2064   */\n      dup2\n        /* \"#utility.yul\":2044:2065   */\n      tag_106\n      jump\t// in\n    tag_174:\n        /* \"#utility.yul\":2039:2042   */\n      dup3\n        /* \"#utility.yul\":2032:2066   */\n      mstore\n        /* \"#utility.yul\":1963:2072   */\n      pop\n      pop\n      jump\t// out\n        /* \"#utility.yul\":2078:2288   */\n    tag_25:\n        /* \"#utility.yul\":2165:2169   */\n      0x00\n        /* \"#utility.yul\":2203:2205   */\n      0x20\n        /* \"#utility.yul\":2192:2201   */\n      dup3\n        /* \"#utility.yul\":2188:2206   */\n      add\n        /* \"#utility.yul\":2180:2206   */\n      swap1\n      pop\n        /* \"#utility.yul\":2216:2281   */\n      tag_176\n        /* \"#utility.yul\":2278:2279   */\n      0x00\n        /* \"#utility.yul\":2267:2276   */\n      dup4\n        /* \"#utility.yul\":2263:2280   */\n      add\n        /* \"#utility.yul\":2254:2260   */\n      dup5\n        /* \"#utility.yul\":2216:2281   */\n      tag_107\n      jump\t// in\n    tag_176:\n        /* \"#utility.yul\":2078:2288   */\n      swap3\n      swap2\n      pop\n      pop\n      jump\t// out\n        /* \"#utility.yul\":2294:2412   */\n    tag_108:\n        /* \"#utility.yul\":2381:2405   */\n      tag_178\n        /* \"#utility.yul\":2399:2404   */\n      dup2\n        /* \"#utility.yul\":2381:2405   */\n      tag_99\n      jump\t// in\n    tag_178:\n        /* \"#utility.yul\":2376:2379   */\n      dup3\n        /* \"#utility.yul\":2369:2406   */\n      mstore\n        /* \"#utility.yul\":2294:2412   */\n      pop\n      pop\n      jump\t// out\n        /* \"#utility.yul\":2418:2536   */\n    tag_109:\n        /* \"#utility.yul\":2505:2529   */\n      tag_180\n        /* \"#utility.yul\":2523:2528   */\n      dup2\n        /* \"#utility.yul\":2505:2529   */\n      tag_103\n      jump\t// in\n    tag_180:\n        /* \"#utility.yul\":2500:2503   */\n      dup3\n        /* \"#utility.yul\":2493:2530   */\n      mstore\n        /* \"#utility.yul\":2418:2536   */\n      pop\n      pop\n      jump\t// out\n        /* \"#utility.yul\":2542:3206   */\n    tag_30:\n        /* \"#utility.yul\":2747:2751   */\n      0x00\n        /* \"#utility.yul\":2785:2788   */\n      0xa0\n        /* \"#utility.yul\":2774:2783   */\n      dup3\n        /* \"#utility.yul\":2770:2789   */\n      add\n        /* \"#utility.yul\":2762:2789   */\n      swap1\n      pop\n        /* \"#utility.yul\":2799:2870   */\n      tag_182\n        /* \"#utility.yul\":2867:2868   */\n      0x00\n        /* \"#utility.yul\":2856:2865   */\n      dup4\n        /* \"#utility.yul\":2852:2869   */\n      add\n        /* \"#utility.yul\":2843:2849   */\n      dup9\n        /* \"#utility.yul\":2799:2870   */\n      tag_108\n      jump\t// in\n    tag_182:\n        /* \"#utility.yul\":2880:2952   */\n      tag_183\n        /* \"#utility.yul\":2948:2950   */\n      0x20\n        /* \"#utility.yul\":2937:2946   */\n      dup4\n        /* \"#utility.yul\":2933:2951   */\n      add\n        /* \"#utility.yul\":2924:2930   */\n      dup8\n        /* \"#utility.yul\":2880:2952   */\n      tag_108\n      jump\t// in\n    tag_183:\n        /* \"#utility.yul\":2962:3034   */\n      tag_184\n        /* \"#utility.yul\":3030:3032   */\n      0x40\n        /* \"#utility.yul\":3019:3028   */\n      dup4\n        /* \"#utility.yul\":3015:3033   */\n      add\n        /* \"#utility.yul\":3006:3012   */\n      dup7\n        /* \"#utility.yul\":2962:3034   */\n      tag_108\n      jump\t// in\n    tag_184:\n        /* \"#utility.yul\":3044:3116   */\n      tag_185\n        /* \"#utility.yul\":3112:3114   */\n      0x60\n        /* \"#utility.yul\":3101:3110   */\n      dup4\n        /* \"#utility.yul\":3097:3115   */\n      add\n        /* \"#utility.yul\":3088:3094   */\n      dup6\n        /* \"#utility.yul\":3044:3116   */\n      tag_108\n      jump\t// in\n    tag_185:\n        /* \"#utility.yul\":3126:3199   */\n      tag_186\n        /* \"#utility.yul\":3194:3197   */\n      0x80\n        /* \"#utility.yul\":3183:3192   */\n      dup4\n        /* \"#utility.yul\":3179:3198   */\n      add\n        /* \"#utility.yul\":3170:3176   */\n      dup5\n        /* \"#utility.yul\":3126:3199   */\n      tag_109\n      jump\t// in\n    tag_186:\n        /* \"#utility.yul\":2542:3206   */\n      swap7\n      swap6\n      pop\n      pop\n      pop\n      pop\n      pop\n      pop\n      jump\t// out\n        /* \"#utility.yul\":3212:3434   */\n    tag_35:\n        /* \"#utility.yul\":3305:3309   */\n      0x00\n        /* \"#utility.yul\":3343:3345   */\n      0x20\n        /* \"#utility.yul\":3332:3341   */\n      dup3\n        /* \"#utility.yul\":3328:3346   */\n      add\n        /* \"#utility.yul\":3320:3346   */\n      swap1\n      pop\n        /* \"#utility.yul\":3356:3427   */\n      tag_188\n        /* \"#utility.yul\":3424:3425   */\n      0x00\n        /* \"#utility.yul\":3413:3422   */\n      dup4\n        /* \"#utility.yul\":3409:3426   */\n      add\n        /* \"#utility.yul\":3400:3406   */\n      dup5\n        /* \"#utility.yul\":3356:3427   */\n      tag_109\n      jump\t// in\n    tag_188:\n        /* \"#utility.yul\":3212:3434   */\n      swap3\n      swap2\n      pop\n      pop\n      jump\t// out\n        /* \"#utility.yul\":3440:3539   */\n    tag_110:\n        /* \"#utility.yul\":3492:3498   */\n      0x00\n        /* \"#utility.yul\":3526:3531   */\n      dup2\n        /* \"#utility.yul\":3520:3532   */\n      mload\n        /* \"#utility.yul\":3510:3532   */\n      swap1\n      pop\n        /* \"#utility.yul\":3440:3539   */\n      swap2\n      swap1\n      pop\n      jump\t// out\n        /* \"#utility.yul\":3545:3714   */\n    tag_111:\n        /* \"#utility.yul\":3629:3640   */\n      0x00\n        /* \"#utility.yul\":3663:3669   */\n      dup3\n        /* \"#utility.yul\":3658:3661   */\n      dup3\n        /* \"#utility.yul\":3651:3670   */\n      mstore\n        /* \"#utility.yul\":3703:3707   */\n      0x20\n        /* \"#utility.yul\":3698:3701   */\n      dup3\n        /* \"#utility.yul\":3694:3708   */\n      add\n        /* \"#utility.yul\":3679:3708   */\n      swap1\n      pop\n        /* \"#utility.yul\":3545:3714   */\n      swap3\n      swap2\n      pop\n      pop\n      jump\t// out\n        /* \"#utility.yul\":3720:4027   */\n    tag_112:\n        /* \"#utility.yul\":3788:3789   */\n      0x00\n        /* \"#utility.yul\":3798:3911   */\n    tag_192:\n        /* \"#utility.yul\":3812:3818   */\n      dup4\n        /* \"#utility.yul\":3809:3810   */\n      dup2\n        /* \"#utility.yul\":3806:3819   */\n      lt\n        /* \"#utility.yul\":3798:3911   */\n      iszero\n      tag_194\n      jumpi\n        /* \"#utility.yul\":3897:3898   */\n      dup1\n        /* \"#utility.yul\":3892:3895   */\n      dup3\n        /* \"#utility.yul\":3888:3899   */\n      add\n        /* \"#utility.yul\":3882:3900   */\n      mload\n        /* \"#utility.yul\":3878:3879   */\n      dup2\n        /* \"#utility.yul\":3873:3876   */\n      dup5\n        /* \"#utility.yul\":3869:3880   */\n      add\n        /* \"#utility.yul\":3862:3901   */\n      mstore\n        /* \"#utility.yul\":3834:3836   */\n      0x20\n        /* \"#utility.yul\":3831:3832   */\n      dup2\n        /* \"#utility.yul\":3827:3837   */\n      add\n        /* \"#utility.yul\":3822:3837   */\n      swap1\n      pop\n        /* \"#utility.yul\":3798:3911   */\n      jump(tag_192)\n    tag_194:\n        /* \"#utility.yul\":3929:3935   */\n      dup4\n        /* \"#utility.yul\":3926:3927   */\n      dup2\n        /* \"#utility.yul\":3923:3936   */\n      gt\n        /* \"#utility.yul\":3920:4021   */\n      iszero\n      tag_195\n      jumpi\n        /* \"#utility.yul\":4009:4010   */\n      0x00\n        /* \"#utility.yul\":4000:4006   */\n      dup5\n        /* \"#utility.yul\":3995:3998   */\n      dup5\n        /* \"#utility.yul\":3991:4007   */\n      add\n        /* \"#utility.yul\":3984:4011   */\n      mstore\n        /* \"#utility.yul\":3920:4021   */\n    tag_195:\n        /* \"#utility.yul\":3769:4027   */\n      pop\n        /* \"#utility.yul\":3720:4027   */\n      pop\n      pop\n      pop\n      jump\t// out\n        /* \"#utility.yul\":4033:4135   */\n    tag_113:\n        /* \"#utility.yul\":4074:4080   */\n      0x00\n        /* \"#utility.yul\":4125:4127   */\n      0x1f\n        /* \"#utility.yul\":4121:4128   */\n      not\n        /* \"#utility.yul\":4116:4118   */\n      0x1f\n        /* \"#utility.yul\":4109:4114   */\n      dup4\n        /* \"#utility.yul\":4105:4119   */\n      add\n        /* \"#utility.yul\":4101:4129   */\n      and\n        /* \"#utility.yul\":4091:4129   */\n      swap1\n      pop\n        /* \"#utility.yul\":4033:4135   */\n      swap2\n      swap1\n      pop\n      jump\t// out\n        /* \"#utility.yul\":4141:4505   */\n    tag_114:\n        /* \"#utility.yul\":4229:4232   */\n      0x00\n        /* \"#utility.yul\":4257:4296   */\n      tag_198\n        /* \"#utility.yul\":4290:4295   */\n      dup3\n        /* \"#utility.yul\":4257:4296   */\n      tag_110\n      jump\t// in\n    tag_198:\n        /* \"#utility.yul\":4312:4383   */\n      tag_199\n        /* \"#utility.yul\":4376:4382   */\n      dup2\n        /* \"#utility.yul\":4371:4374   */\n      dup6\n        /* \"#utility.yul\":4312:4383   */\n      tag_111\n      jump\t// in\n    tag_199:\n        /* \"#utility.yul\":4305:4383   */\n      swap4\n      pop\n        /* \"#utility.yul\":4392:4444   */\n      tag_200\n        /* \"#utility.yul\":4437:4443   */\n      dup2\n        /* \"#utility.yul\":4432:4435   */\n      dup6\n        /* \"#utility.yul\":4425:4429   */\n      0x20\n        /* \"#utility.yul\":4418:4423   */\n      dup7\n        /* \"#utility.yul\":4414:4430   */\n      add\n        /* \"#utility.yul\":4392:4444   */\n      tag_112\n      jump\t// in\n    tag_200:\n        /* \"#utility.yul\":4469:4498   */\n      tag_201\n        /* \"#utility.yul\":4491:4497   */\n      dup2\n        /* \"#utility.yul\":4469:4498   */\n      tag_113\n      jump\t// in\n    tag_201:\n        /* \"#utility.yul\":4464:4467   */\n      dup5\n        /* \"#utility.yul\":4460:4499   */\n      add\n        /* \"#utility.yul\":4453:4499   */\n      swap2\n      pop\n        /* \"#utility.yul\":4233:4505   */\n      pop\n        /* \"#utility.yul\":4141:4505   */\n      swap3\n      swap2\n      pop\n      pop\n      jump\t// out\n        /* \"#utility.yul\":4511:4615   */\n    tag_115:\n        /* \"#utility.yul\":4556:4563   */\n      0x00\n        /* \"#utility.yul\":4585:4609   */\n      tag_203\n        /* \"#utility.yul\":4603:4608   */\n      dup3\n        /* \"#utility.yul\":4585:4609   */\n      tag_102\n      jump\t// in\n    tag_203:\n        /* \"#utility.yul\":4574:4609   */\n      swap1\n      pop\n        /* \"#utility.yul\":4511:4615   */\n      swap2\n      swap1\n      pop\n      jump\t// out\n        /* \"#utility.yul\":4621:4763   */\n    tag_116:\n        /* \"#utility.yul\":4724:4756   */\n      tag_205\n        /* \"#utility.yul\":4750:4755   */\n      dup2\n        /* \"#utility.yul\":4724:4756   */\n      tag_115\n      jump\t// in\n    tag_205:\n        /* \"#utility.yul\":4719:4722   */\n      dup3\n        /* \"#utility.yul\":4712:4757   */\n      mstore\n        /* \"#utility.yul\":4621:4763   */\n      pop\n      pop\n      jump\t// out\n        /* \"#utility.yul\":4769:5544   */\n    tag_41:\n        /* \"#utility.yul\":5004:5008   */\n      0x00\n        /* \"#utility.yul\":5042:5045   */\n      0xa0\n        /* \"#utility.yul\":5031:5040   */\n      dup3\n        /* \"#utility.yul\":5027:5046   */\n      add\n        /* \"#utility.yul\":5019:5046   */\n      swap1\n      pop\n        /* \"#utility.yul\":5092:5101   */\n      dup2\n        /* \"#utility.yul\":5086:5090   */\n      dup2\n        /* \"#utility.yul\":5082:5102   */\n      sub\n        /* \"#utility.yul\":5078:5079   */\n      0x00\n        /* \"#utility.yul\":5067:5076   */\n      dup4\n        /* \"#utility.yul\":5063:5080   */\n      add\n        /* \"#utility.yul\":5056:5103   */\n      mstore\n        /* \"#utility.yul\":5120:5198   */\n      tag_207\n        /* \"#utility.yul\":5193:5197   */\n      dup2\n        /* \"#utility.yul\":5184:5190   */\n      dup9\n        /* \"#utility.yul\":5120:5198   */\n      tag_114\n      jump\t// in\n    tag_207:\n        /* \"#utility.yul\":5112:5198   */\n      swap1\n      pop\n        /* \"#utility.yul\":5208:5280   */\n      tag_208\n        /* \"#utility.yul\":5276:5278   */\n      0x20\n        /* \"#utility.yul\":5265:5274   */\n      dup4\n        /* \"#utility.yul\":5261:5279   */\n      add\n        /* \"#utility.yul\":5252:5258   */\n      dup8\n        /* \"#utility.yul\":5208:5280   */\n      tag_108\n      jump\t// in\n    tag_208:\n        /* \"#utility.yul\":5290:5378   */\n      tag_209\n        /* \"#utility.yul\":5374:5376   */\n      0x40\n        /* \"#utility.yul\":5363:5372   */\n      dup4\n        /* \"#utility.yul\":5359:5377   */\n      add\n        /* \"#utility.yul\":5350:5356   */\n      dup7\n        /* \"#utility.yul\":5290:5378   */\n      tag_116\n      jump\t// in\n    tag_209:\n        /* \"#utility.yul\":5388:5454   */\n      tag_210\n        /* \"#utility.yul\":5450:5452   */\n      0x60\n        /* \"#utility.yul\":5439:5448   */\n      dup4\n        /* \"#utility.yul\":5435:5453   */\n      add\n        /* \"#utility.yul\":5426:5432   */\n      dup6\n        /* \"#utility.yul\":5388:5454   */\n      tag_107\n      jump\t// in\n    tag_210:\n        /* \"#utility.yul\":5464:5537   */\n      tag_211\n        /* \"#utility.yul\":5532:5535   */\n      0x80\n        /* \"#utility.yul\":5521:5530   */\n      dup4\n        /* \"#utility.yul\":5517:5536   */\n      add\n        /* \"#utility.yul\":5508:5514   */\n      dup5\n        /* \"#utility.yul\":5464:5537   */\n      tag_108\n      jump\t// in\n    tag_211:\n        /* \"#utility.yul\":4769:5544   */\n      swap7\n      swap6\n      pop\n      pop\n      pop\n      pop\n      pop\n      pop\n      jump\t// out\n        /* \"#utility.yul\":5550:5772   */\n    tag_46:\n        /* \"#utility.yul\":5643:5647   */\n      0x00\n        /* \"#utility.yul\":5681:5683   */\n      0x20\n        /* \"#utility.yul\":5670:5679   */\n      dup3\n        /* \"#utility.yul\":5666:5684   */\n      add\n        /* \"#utility.yul\":5658:5684   */\n      swap1\n      pop\n        /* \"#utility.yul\":5694:5765   */\n      tag_213\n        /* \"#utility.yul\":5762:5763   */\n      0x00\n        /* \"#utility.yul\":5751:5760   */\n      dup4\n        /* \"#utility.yul\":5747:5764   */\n      add\n        /* \"#utility.yul\":5738:5744   */\n      dup5\n        /* \"#utility.yul\":5694:5765   */\n      tag_108\n      jump\t// in\n    tag_213:\n        /* \"#utility.yul\":5550:5772   */\n      swap3\n      swap2\n      pop\n      pop\n      jump\t// out\n        /* \"#utility.yul\":5778:5895   */\n    tag_117:\n        /* \"#utility.yul\":5887:5888   */\n      0x00\n        /* \"#utility.yul\":5884:5885   */\n      dup1\n        /* \"#utility.yul\":5877:5889   */\n      revert\n        /* \"#utility.yul\":5901:6018   */\n    tag_118:\n        /* \"#utility.yul\":6010:6011   */\n      0x00\n        /* \"#utility.yul\":6007:6008   */\n      dup1\n        /* \"#utility.yul\":6000:6012   */\n      revert\n        /* \"#utility.yul\":6024:6204   */\n    tag_119:\n        /* \"#utility.yul\":6072:6149   */\n      0x4e487b7100000000000000000000000000000000000000000000000000000000\n        /* \"#utility.yul\":6069:6070   */\n      0x00\n        /* \"#utility.yul\":6062:6150   */\n      mstore\n        /* \"#utility.yul\":6169:6173   */\n      0x41\n        /* \"#utility.yul\":6166:6167   */\n      0x04\n        /* \"#utility.yul\":6159:6174   */\n      mstore\n        /* \"#utility.yul\":6193:6197   */\n      0x24\n        /* \"#utility.yul\":6190:6191   */\n      0x00\n        /* \"#utility.yul\":6183:6198   */\n      revert\n        /* \"#utility.yul\":6210:6491   */\n    tag_120:\n        /* \"#utility.yul\":6293:6320   */\n      tag_218\n        /* \"#utility.yul\":6315:6319   */\n      dup3\n        /* \"#utility.yul\":6293:6320   */\n      tag_113\n      jump\t// in\n    tag_218:\n        /* \"#utility.yul\":6285:6291   */\n      dup2\n        /* \"#utility.yul\":6281:6321   */\n      add\n        /* \"#utility.yul\":6423:6429   */\n      dup2\n        /* \"#utility.yul\":6411:6421   */\n      dup2\n        /* \"#utility.yul\":6408:6430   */\n      lt\n        /* \"#utility.yul\":6387:6405   */\n      0xffffffffffffffff\n        /* \"#utility.yul\":6375:6385   */\n      dup3\n        /* \"#utility.yul\":6372:6406   */\n      gt\n        /* \"#utility.yul\":6369:6431   */\n      or\n        /* \"#utility.yul\":6366:6454   */\n      iszero\n      tag_219\n      jumpi\n        /* \"#utility.yul\":6434:6452   */\n      tag_220\n      tag_119\n      jump\t// in\n    tag_220:\n        /* \"#utility.yul\":6366:6454   */\n    tag_219:\n        /* \"#utility.yul\":6474:6484   */\n      dup1\n        /* \"#utility.yul\":6470:6472   */\n      0x40\n        /* \"#utility.yul\":6463:6485   */\n      mstore\n        /* \"#utility.yul\":6253:6491   */\n      pop\n        /* \"#utility.yul\":6210:6491   */\n      pop\n      pop\n      jump\t// out\n        /* \"#utility.yul\":6497:6626   */\n    tag_121:\n        /* \"#utility.yul\":6531:6537   */\n      0x00\n        /* \"#utility.yul\":6558:6578   */\n      tag_222\n      tag_96\n      jump\t// in\n    tag_222:\n        /* \"#utility.yul\":6548:6578   */\n      swap1\n      pop\n        /* \"#utility.yul\":6587:6620   */\n      tag_223\n        /* \"#utility.yul\":6615:6619   */\n      dup3\n        /* \"#utility.yul\":6607:6613   */\n      dup3\n        /* \"#utility.yul\":6587:6620   */\n      tag_120\n      jump\t// in\n    tag_223:\n        /* \"#utility.yul\":6497:6626   */\n      swap2\n      swap1\n      pop\n      jump\t// out\n        /* \"#utility.yul\":6632:6940   */\n    tag_122:\n        /* \"#utility.yul\":6694:6698   */\n      0x00\n        /* \"#utility.yul\":6784:6802   */\n      0xffffffffffffffff\n        /* \"#utility.yul\":6776:6782   */\n      dup3\n        /* \"#utility.yul\":6773:6803   */\n      gt\n        /* \"#utility.yul\":6770:6826   */\n      iszero\n      tag_225\n      jumpi\n        /* \"#utility.yul\":6806:6824   */\n      tag_226\n      tag_119\n      jump\t// in\n    tag_226:\n        /* \"#utility.yul\":6770:6826   */\n    tag_225:\n        /* \"#utility.yul\":6844:6873   */\n      tag_227\n        /* \"#utility.yul\":6866:6872   */\n      dup3\n        /* \"#utility.yul\":6844:6873   */\n      tag_113\n      jump\t// in\n    tag_227:\n        /* \"#utility.yul\":6836:6873   */\n      swap1\n      pop\n        /* \"#utility.yul\":6928:6932   */\n      0x20\n        /* \"#utility.yul\":6922:6926   */\n      dup2\n        /* \"#utility.yul\":6918:6933   */\n      add\n        /* \"#utility.yul\":6910:6933   */\n      swap1\n      pop\n        /* \"#utility.yul\":6632:6940   */\n      swap2\n      swap1\n      pop\n      jump\t// out\n        /* \"#utility.yul\":6946:7100   */\n    tag_123:\n        /* \"#utility.yul\":7030:7036   */\n      dup3\n        /* \"#utility.yul\":7025:7028   */\n      dup2\n        /* \"#utility.yul\":7020:7023   */\n      dup4\n        /* \"#utility.yul\":7007:7037   */\n      calldatacopy\n        /* \"#utility.yul\":7092:7093   */\n      0x00\n        /* \"#utility.yul\":7083:7089   */\n      dup4\n        /* \"#utility.yul\":7078:7081   */\n      dup4\n        /* \"#utility.yul\":7074:7090   */\n      add\n        /* \"#utility.yul\":7067:7094   */\n      mstore\n        /* \"#utility.yul\":6946:7100   */\n      pop\n      pop\n      pop\n      jump\t// out\n        /* \"#utility.yul\":7106:7518   */\n    tag_124:\n        /* \"#utility.yul\":7184:7189   */\n      0x00\n        /* \"#utility.yul\":7209:7275   */\n      tag_230\n        /* \"#utility.yul\":7225:7274   */\n      tag_231\n        /* \"#utility.yul\":7267:7273   */\n      dup5\n        /* \"#utility.yul\":7225:7274   */\n      tag_122\n      jump\t// in\n    tag_231:\n        /* \"#utility.yul\":7209:7275   */\n      tag_121\n      jump\t// in\n    tag_230:\n        /* \"#utility.yul\":7200:7275   */\n      swap1\n      pop\n        /* \"#utility.yul\":7298:7304   */\n      dup3\n        /* \"#utility.yul\":7291:7296   */\n      dup2\n        /* \"#utility.yul\":7284:7305   */\n      mstore\n        /* \"#utility.yul\":7336:7340   */\n      0x20\n        /* \"#utility.yul\":7329:7334   */\n      dup2\n        /* \"#utility.yul\":7325:7341   */\n      add\n        /* \"#utility.yul\":7374:7377   */\n      dup5\n        /* \"#utility.yul\":7365:7371   */\n      dup5\n        /* \"#utility.yul\":7360:7363   */\n      dup5\n        /* \"#utility.yul\":7356:7372   */\n      add\n        /* \"#utility.yul\":7353:7378   */\n      gt\n        /* \"#utility.yul\":7350:7462   */\n      iszero\n      tag_232\n      jumpi\n        /* \"#utility.yul\":7381:7460   */\n      tag_233\n      tag_118\n      jump\t// in\n    tag_233:\n        /* \"#utility.yul\":7350:7462   */\n    tag_232:\n        /* \"#utility.yul\":7471:7512   */\n      tag_234\n        /* \"#utility.yul\":7505:7511   */\n      dup5\n        /* \"#utility.yul\":7500:7503   */\n      dup3\n        /* \"#utility.yul\":7495:7498   */\n      dup6\n        /* \"#utility.yul\":7471:7512   */\n      tag_123\n      jump\t// in\n    tag_234:\n        /* \"#utility.yul\":7190:7518   */\n      pop\n        /* \"#utility.yul\":7106:7518   */\n      swap4\n      swap3\n      pop\n      pop\n      pop\n      jump\t// out\n        /* \"#utility.yul\":7538:7878   */\n    tag_125:\n        /* \"#utility.yul\":7594:7599   */\n      0x00\n        /* \"#utility.yul\":7643:7646   */\n      dup3\n        /* \"#utility.yul\":7636:7640   */\n      0x1f\n        /* \"#utility.yul\":7628:7634   */\n      dup4\n        /* \"#utility.yul\":7624:7641   */\n      add\n        /* \"#utility.yul\":7620:7647   */\n      slt\n        /* \"#utility.yul\":7610:7732   */\n      tag_236\n      jumpi\n        /* \"#utility.yul\":7651:7730   */\n      tag_237\n      tag_117\n      jump\t// in\n    tag_237:\n        /* \"#utility.yul\":7610:7732   */\n    tag_236:\n        /* \"#utility.yul\":7768:7774   */\n      dup2\n        /* \"#utility.yul\":7755:7775   */\n      calldataload\n        /* \"#utility.yul\":7793:7872   */\n      tag_238\n        /* \"#utility.yul\":7868:7871   */\n      dup5\n        /* \"#utility.yul\":7860:7866   */\n      dup3\n        /* \"#utility.yul\":7853:7857   */\n      0x20\n        /* \"#utility.yul\":7845:7851   */\n      dup7\n        /* \"#utility.yul\":7841:7858   */\n      add\n        /* \"#utility.yul\":7793:7872   */\n      tag_124\n      jump\t// in\n    tag_238:\n        /* \"#utility.yul\":7784:7872   */\n      swap2\n      pop\n        /* \"#utility.yul\":7600:7878   */\n      pop\n        /* \"#utility.yul\":7538:7878   */\n      swap3\n      swap2\n      pop\n      pop\n      jump\t// out\n        /* \"#utility.yul\":7884:8022   */\n    tag_126:\n        /* \"#utility.yul\":7965:7997   */\n      tag_240\n        /* \"#utility.yul\":7991:7996   */\n      dup2\n        /* \"#utility.yul\":7965:7997   */\n      tag_115\n      jump\t// in\n    tag_240:\n        /* \"#utility.yul\":7958:7963   */\n      dup2\n        /* \"#utility.yul\":7955:7998   */\n      eq\n        /* \"#utility.yul\":7945:8016   */\n      tag_241\n      jumpi\n        /* \"#utility.yul\":8012:8013   */\n      0x00\n        /* \"#utility.yul\":8009:8010   */\n      dup1\n        /* \"#utility.yul\":8002:8014   */\n      revert\n        /* \"#utility.yul\":7945:8016   */\n    tag_241:\n        /* \"#utility.yul\":7884:8022   */\n      pop\n      jump\t// out\n        /* \"#utility.yul\":8028:8183   */\n    tag_127:\n        /* \"#utility.yul\":8082:8087   */\n      0x00\n        /* \"#utility.yul\":8120:8126   */\n      dup2\n        /* \"#utility.yul\":8107:8127   */\n      calldataload\n        /* \"#utility.yul\":8098:8127   */\n      swap1\n      pop\n        /* \"#utility.yul\":8136:8177   */\n      tag_243\n        /* \"#utility.yul\":8171:8176   */\n      dup2\n        /* \"#utility.yul\":8136:8177   */\n      tag_126\n      jump\t// in\n    tag_243:\n        /* \"#utility.yul\":8028:8183   */\n      swap3\n      swap2\n      pop\n      pop\n      jump\t// out\n        /* \"#utility.yul\":8189:9004   */\n    tag_50:\n        /* \"#utility.yul\":8284:8290   */\n      0x00\n        /* \"#utility.yul\":8292:8298   */\n      dup1\n        /* \"#utility.yul\":8300:8306   */\n      0x00\n        /* \"#utility.yul\":8349:8351   */\n      0x60\n        /* \"#utility.yul\":8337:8346   */\n      dup5\n        /* \"#utility.yul\":8328:8335   */\n      dup7\n        /* \"#utility.yul\":8324:8347   */\n      sub\n        /* \"#utility.yul\":8320:8352   */\n      slt\n        /* \"#utility.yul\":8317:8436   */\n      iszero\n      tag_245\n      jumpi\n        /* \"#utility.yul\":8355:8434   */\n      tag_246\n      tag_97\n      jump\t// in\n    tag_246:\n        /* \"#utility.yul\":8317:8436   */\n    tag_245:\n        /* \"#utility.yul\":8503:8504   */\n      0x00\n        /* \"#utility.yul\":8492:8501   */\n      dup5\n        /* \"#utility.yul\":8488:8505   */\n      add\n        /* \"#utility.yul\":8475:8506   */\n      calldataload\n        /* \"#utility.yul\":8533:8551   */\n      0xffffffffffffffff\n        /* \"#utility.yul\":8525:8531   */\n      dup2\n        /* \"#utility.yul\":8522:8552   */\n      gt\n        /* \"#utility.yul\":8519:8636   */\n      iszero\n      tag_247\n      jumpi\n        /* \"#utility.yul\":8555:8634   */\n      tag_248\n      tag_98\n      jump\t// in\n    tag_248:\n        /* \"#utility.yul\":8519:8636   */\n    tag_247:\n        /* \"#utility.yul\":8660:8723   */\n      tag_249\n        /* \"#utility.yul\":8715:8722   */\n      dup7\n        /* \"#utility.yul\":8706:8712   */\n      dup3\n        /* \"#utility.yul\":8695:8704   */\n      dup8\n        /* \"#utility.yul\":8691:8713   */\n      add\n        /* \"#utility.yul\":8660:8723   */\n      tag_125\n      jump\t// in\n    tag_249:\n        /* \"#utility.yul\":8650:8723   */\n      swap4\n      pop\n        /* \"#utility.yul\":8446:8733   */\n      pop\n        /* \"#utility.yul\":8772:8774   */\n      0x20\n        /* \"#utility.yul\":8798:8851   */\n      tag_250\n        /* \"#utility.yul\":8843:8850   */\n      dup7\n        /* \"#utility.yul\":8834:8840   */\n      dup3\n        /* \"#utility.yul\":8823:8832   */\n      dup8\n        /* \"#utility.yul\":8819:8841   */\n      add\n        /* \"#utility.yul\":8798:8851   */\n      tag_101\n      jump\t// in\n    tag_250:\n        /* \"#utility.yul\":8788:8851   */\n      swap3\n      pop\n        /* \"#utility.yul\":8743:8861   */\n      pop\n        /* \"#utility.yul\":8900:8902   */\n      0x40\n        /* \"#utility.yul\":8926:8987   */\n      tag_251\n        /* \"#utility.yul\":8979:8986   */\n      dup7\n        /* \"#utility.yul\":8970:8976   */\n      dup3\n        /* \"#utility.yul\":8959:8968   */\n      dup8\n        /* \"#utility.yul\":8955:8977   */\n      add\n        /* \"#utility.yul\":8926:8987   */\n      tag_127\n      jump\t// in\n    tag_251:\n        /* \"#utility.yul\":8916:8987   */\n      swap2\n      pop\n        /* \"#utility.yul\":8871:8997   */\n      pop\n        /* \"#utility.yul\":8189:9004   */\n      swap3\n      pop\n      swap3\n      pop\n      swap3\n      jump\t// out\n        /* \"#utility.yul\":9010:9190   */\n    tag_128:\n        /* \"#utility.yul\":9058:9135   */\n      0x4e487b7100000000000000000000000000000000000000000000000000000000\n        /* \"#utility.yul\":9055:9056   */\n      0x00\n        /* \"#utility.yul\":9048:9136   */\n      mstore\n        /* \"#utility.yul\":9155:9159   */\n      0x12\n        /* \"#utility.yul\":9152:9153   */\n      0x04\n        /* \"#utility.yul\":9145:9160   */\n      mstore\n        /* \"#utility.yul\":9179:9183   */\n      0x24\n        /* \"#utility.yul\":9176:9177   */\n      0x00\n        /* \"#utility.yul\":9169:9184   */\n      revert\n        /* \"#utility.yul\":9196:9376   */\n    tag_129:\n        /* \"#utility.yul\":9244:9321   */\n      0x4e487b7100000000000000000000000000000000000000000000000000000000\n        /* \"#utility.yul\":9241:9242   */\n      0x00\n        /* \"#utility.yul\":9234:9322   */\n      mstore\n        /* \"#utility.yul\":9341:9345   */\n      0x11\n        /* \"#utility.yul\":9338:9339   */\n      0x04\n        /* \"#utility.yul\":9331:9346   */\n      mstore\n        /* \"#utility.yul\":9365:9369   */\n      0x24\n        /* \"#utility.yul\":9362:9363   */\n      0x00\n        /* \"#utility.yul\":9355:9370   */\n      revert\n        /* \"#utility.yul\":9382:9567   */\n    tag_71:\n        /* \"#utility.yul\":9422:9423   */\n      0x00\n        /* \"#utility.yul\":9439:9459   */\n      tag_255\n        /* \"#utility.yul\":9457:9458   */\n      dup3\n        /* \"#utility.yul\":9439:9459   */\n      tag_99\n      jump\t// in\n    tag_255:\n        /* \"#utility.yul\":9434:9459   */\n      swap2\n      pop\n        /* \"#utility.yul\":9473:9493   */\n      tag_256\n        /* \"#utility.yul\":9491:9492   */\n      dup4\n        /* \"#utility.yul\":9473:9493   */\n      tag_99\n      jump\t// in\n    tag_256:\n        /* \"#utility.yul\":9468:9493   */\n      swap3\n      pop\n        /* \"#utility.yul\":9512:9513   */\n      dup3\n        /* \"#utility.yul\":9502:9537   */\n      tag_257\n      jumpi\n        /* \"#utility.yul\":9517:9535   */\n      tag_258\n      tag_128\n      jump\t// in\n    tag_258:\n        /* \"#utility.yul\":9502:9537   */\n    tag_257:\n        /* \"#utility.yul\":9559:9560   */\n      dup3\n        /* \"#utility.yul\":9556:9557   */\n      dup3\n        /* \"#utility.yul\":9552:9561   */\n      div\n        /* \"#utility.yul\":9547:9561   */\n      swap1\n      pop\n        /* \"#utility.yul\":9382:9567   */\n      swap3\n      swap2\n      pop\n      pop\n      jump\t// out\n        /* \"#utility.yul\":9573:9753   */\n    tag_130:\n        /* \"#utility.yul\":9621:9698   */\n      0x4e487b7100000000000000000000000000000000000000000000000000000000\n        /* \"#utility.yul\":9618:9619   */\n      0x00\n        /* \"#utility.yul\":9611:9699   */\n      mstore\n        /* \"#utility.yul\":9718:9722   */\n      0x22\n        /* \"#utility.yul\":9715:9716   */\n      0x04\n        /* \"#utility.yul\":9708:9723   */\n      mstore\n        /* \"#utility.yul\":9742:9746   */\n      0x24\n        /* \"#utility.yul\":9739:9740   */\n      0x00\n        /* \"#utility.yul\":9732:9747   */\n      revert\n        /* \"#utility.yul\":9759:10079   */\n    tag_77:\n        /* \"#utility.yul\":9803:9809   */\n      0x00\n        /* \"#utility.yul\":9840:9841   */\n      0x02\n        /* \"#utility.yul\":9834:9838   */\n      dup3\n        /* \"#utility.yul\":9830:9842   */\n      div\n        /* \"#utility.yul\":9820:9842   */\n      swap1\n      pop\n        /* \"#utility.yul\":9887:9888   */\n      0x01\n        /* \"#utility.yul\":9881:9885   */\n      dup3\n        /* \"#utility.yul\":9877:9889   */\n      and\n        /* \"#utility.yul\":9908:9926   */\n      dup1\n        /* \"#utility.yul\":9898:9979   */\n      tag_261\n      jumpi\n        /* \"#utility.yul\":9964:9968   */\n      0x7f\n        /* \"#utility.yul\":9956:9962   */\n      dup3\n        /* \"#utility.yul\":9952:9969   */\n      and\n        /* \"#utility.yul\":9942:9969   */\n      swap2\n      pop\n        /* \"#utility.yul\":9898:9979   */\n    tag_261:\n        /* \"#utility.yul\":10026:10028   */\n      0x20\n        /* \"#utility.yul\":10018:10024   */\n      dup3\n        /* \"#utility.yul\":10015:10029   */\n      lt\n        /* \"#utility.yul\":9995:10013   */\n      dup2\n        /* \"#utility.yul\":9992:10030   */\n      sub\n        /* \"#utility.yul\":9989:10073   */\n      tag_262\n      jumpi\n        /* \"#utility.yul\":10045:10063   */\n      tag_263\n      tag_130\n      jump\t// in\n    tag_263:\n        /* \"#utility.yul\":9989:10073   */\n    tag_262:\n        /* \"#utility.yul\":9810:10079   */\n      pop\n        /* \"#utility.yul\":9759:10079   */\n      swap2\n      swap1\n      pop\n      jump\t// out\n        /* \"#utility.yul\":10085:10318   */\n    tag_86:\n        /* \"#utility.yul\":10124:10127   */\n      0x00\n        /* \"#utility.yul\":10147:10171   */\n      tag_265\n        /* \"#utility.yul\":10165:10170   */\n      dup3\n        /* \"#utility.yul\":10147:10171   */\n      tag_99\n      jump\t// in\n    tag_265:\n        /* \"#utility.yul\":10138:10171   */\n      swap2\n      pop\n        /* \"#utility.yul\":10193:10259   */\n      0xffffffffffffffffffffffffffffffffffffffffffffffffffffffffffffffff\n        /* \"#utility.yul\":10186:10191   */\n      dup3\n        /* \"#utility.yul\":10183:10260   */\n      sub\n        /* \"#utility.yul\":10180:10283   */\n      tag_266\n      jumpi\n        /* \"#utility.yul\":10263:10281   */\n      tag_267\n      tag_129\n      jump\t// in\n    tag_267:\n        /* \"#utility.yul\":10180:10283   */\n    tag_266:\n        /* \"#utility.yul\":10310:10311   */\n      0x01\n        /* \"#utility.yul\":10303:10308   */\n      dup3\n        /* \"#utility.yul\":10299:10312   */\n      add\n        /* \"#utility.yul\":10292:10312   */\n      swap1\n      pop\n        /* \"#utility.yul\":10085:10318   */\n      swap2\n      swap1\n      pop\n      jump\t// out\n        /* \"#utility.yul\":10324:10465   */\n    tag_131:\n        /* \"#utility.yul\":10373:10377   */\n      0x00\n        /* \"#utility.yul\":10396:10399   */\n      dup2\n        /* \"#utility.yul\":10388:10399   */\n      swap1\n      pop\n        /* \"#utility.yul\":10419:10422   */\n      dup2\n        /* \"#utility.yul\":10416:10417   */\n      0x00\n        /* \"#utility.yul\":10409:10423   */\n      mstore\n        /* \"#utility.yul\":10453:10457   */\n      0x20\n        /* \"#utility.yul\":10450:10451   */\n      0x00\n        /* \"#utility.yul\":10440:10458   */\n      keccak256\n        /* \"#utility.yul\":10432:10458   */\n      swap1\n      pop\n        /* \"#utility.yul\":10324:10465   */\n      swap2\n      swap1\n      pop\n      jump\t// out\n        /* \"#utility.yul\":10471:10564   */\n    tag_132:\n        /* \"#utility.yul\":10508:10514   */\n      0x00\n        /* \"#utility.yul\":10555:10557   */\n      0x20\n        /* \"#utility.yul\":10550:10552   */\n      0x1f\n        /* \"#utility.yul\":10543:10548   */\n      dup4\n        /* \"#utility.yul\":10539:10553   */\n      add\n        /* \"#utility.yul\":10535:10558   */\n      div\n        /* \"#utility.yul\":10525:10558   */\n      swap1\n      pop\n        /* \"#utility.yul\":10471:10564   */\n      swap2\n      swap1\n      pop\n      jump\t// out\n        /* \"#utility.yul\":10570:10677   */\n    tag_133:\n        /* \"#utility.yul\":10614:10622   */\n      0x00\n        /* \"#utility.yul\":10664:10669   */\n      dup3\n        /* \"#utility.yul\":10658:10662   */\n      dup3\n        /* \"#utility.yul\":10654:10670   */\n      shl\n        /* \"#utility.yul\":10633:10670   */\n      swap1\n      pop\n        /* \"#utility.yul\":10570:10677   */\n      swap3\n      swap2\n      pop\n      pop\n      jump\t// out\n        /* \"#utility.yul\":10683:11076   */\n    tag_134:\n        /* \"#utility.yul\":10752:10758   */\n      0x00\n        /* \"#utility.yul\":10802:10803   */\n      0x08\n        /* \"#utility.yul\":10790:10800   */\n      dup4\n        /* \"#utility.yul\":10786:10804   */\n      mul\n        /* \"#utility.yul\":10825:10922   */\n      tag_272\n        /* \"#utility.yul\":10855:10921   */\n      0xffffffffffffffffffffffffffffffffffffffffffffffffffffffffffffffff\n        /* \"#utility.yul\":10844:10853   */\n      dup3\n        /* \"#utility.yul\":10825:10922   */\n      tag_133\n      jump\t// in\n    tag_272:\n        /* \"#utility.yul\":10943:10982   */\n      tag_273\n        /* \"#utility.yul\":10973:10981   */\n      dup7\n        /* \"#utility.yul\":10962:10971   */\n      dup4\n        /* \"#utility.yul\":10943:10982   */\n      tag_133\n      jump\t// in\n    tag_273:\n        /* \"#utility.yul\":10931:10982   */\n      swap6\n      pop\n        /* \"#utility.yul\":11015:11019   */\n      dup1\n        /* \"#utility.yul\":11011:11020   */\n      not\n        /* \"#utility.yul\":11004:11009   */\n      dup5\n        /* \"#utility.yul\":11000:11021   */\n      and\n        /* \"#utility.yul\":10991:11021   */\n      swap4\n      pop\n        /* \"#utility.yul\":11064:11068   */\n      dup1\n        /* \"#utility.yul\":11054:11062   */\n      dup7\n        /* \"#utility.yul\":11050:11069   */\n      and\n        /* \"#utility.yul\":11043:11048   */\n      dup5\n        /* \"#utility.yul\":11040:11070   */\n      or\n        /* \"#utility.yul\":11030:11070   */\n      swap3\n      pop\n        /* \"#utility.yul\":10759:11076   */\n      pop\n      pop\n        /* \"#utility.yul\":10683:11076   */\n      swap4\n      swap3\n      pop\n      pop\n      pop\n      jump\t// out\n        /* \"#utility.yul\":11082:11142   */\n    tag_135:\n        /* \"#utility.yul\":11110:11113   */\n      0x00\n        /* \"#utility.yul\":11131:11136   */\n      dup2\n        /* \"#utility.yul\":11124:11136   */\n      swap1\n      pop\n        /* \"#utility.yul\":11082:11142   */\n      swap2\n      swap1\n      pop\n      jump\t// out\n        /* \"#utility.yul\":11148:11290   */\n    tag_136:\n        /* \"#utility.yul\":11198:11207   */\n      0x00\n        /* \"#utility.yul\":11231:11284   */\n      tag_276\n        /* \"#utility.yul\":11249:11283   */\n      tag_277\n        /* \"#utility.yul\":11258:11282   */\n      tag_278\n        /* \"#utility.yul\":11276:11281   */\n      dup5\n        /* \"#utility.yul\":11258:11282   */\n      tag_99\n      jump\t// in\n    tag_278:\n        /* \"#utility.yul\":11249:11283   */\n      tag_135\n      jump\t// in\n    tag_277:\n        /* \"#utility.yul\":11231:11284   */\n      tag_99\n      jump\t// in\n    tag_276:\n        /* \"#utility.yul\":11218:11284   */\n      swap1\n      pop\n        /* \"#utility.yul\":11148:11290   */\n      swap2\n      swap1\n      pop\n      jump\t// out\n        /* \"#utility.yul\":11296:11371   */\n    tag_137:\n        /* \"#utility.yul\":11339:11342   */\n      0x00\n        /* \"#utility.yul\":11360:11365   */\n      dup2\n        /* \"#utility.yul\":11353:11365   */\n      swap1\n      pop\n        /* \"#utility.yul\":11296:11371   */\n      swap2\n      swap1\n      pop\n      jump\t// out\n        /* \"#utility.yul\":11377:11646   */\n    tag_138:\n        /* \"#utility.yul\":11487:11526   */\n      tag_281\n        /* \"#utility.yul\":11518:11525   */\n      dup4\n        /* \"#utility.yul\":11487:11526   */\n      tag_136\n      jump\t// in\n    tag_281:\n        /* \"#utility.yul\":11548:11639   */\n      tag_282\n        /* \"#utility.yul\":11597:11638   */\n      tag_283\n        /* \"#utility.yul\":11621:11637   */\n      dup3\n        /* \"#utility.yul\":11597:11638   */\n      tag_137\n      jump\t// in\n    tag_283:\n        /* \"#utility.yul\":11589:11595   */\n      dup5\n        /* \"#utility.yul\":11582:11586   */\n      dup5\n        /* \"#utility.yul\":11576:11587   */\n      sload\n        /* \"#utility.yul\":11548:11639   */\n      tag_134\n      jump\t// in\n    tag_282:\n        /* \"#utility.yul\":11542:11546   */\n      dup3\n        /* \"#utility.yul\":11535:11640   */\n      sstore\n        /* \"#utility.yul\":11453:11646   */\n      pop\n        /* \"#utility.yul\":11377:11646   */\n      pop\n      pop\n      pop\n      jump\t// out\n        /* \"#utility.yul\":11652:11725   */\n    tag_139:\n        /* \"#utility.yul\":11697:11700   */\n      0x00\n        /* \"#utility.yul\":11652:11725   */\n      swap1\n      jump\t// out\n        /* \"#utility.yul\":11731:11920   */\n    tag_140:\n        /* \"#utility.yul\":11808:11840   */\n      tag_286\n      tag_139\n      jump\t// in\n    tag_286:\n        /* \"#utility.yul\":11849:11914   */\n      tag_287\n        /* \"#utility.yul\":11907:11913   */\n      dup2\n        /* \"#utility.yul\":11899:11905   */\n      dup5\n        /* \"#utility.yul\":11893:11897   */\n      dup5\n        /* \"#utility.yul\":11849:11914   */\n      tag_138\n      jump\t// in\n    tag_287:\n        /* \"#utility.yul\":11784:11920   */\n      pop\n        /* \"#utility.yul\":11731:11920   */\n      pop\n      pop\n      jump\t// out\n        /* \"#utility.yul\":11926:12112   */\n    tag_141:\n        /* \"#utility.yul\":11986:12106   */\n    tag_289:\n        /* \"#utility.yul\":12003:12006   */\n      dup2\n        /* \"#utility.yul\":11996:12001   */\n      dup2\n        /* \"#utility.yul\":11993:12007   */\n      lt\n        /* \"#utility.yul\":11986:12106   */\n      iszero\n      tag_291\n      jumpi\n        /* \"#utility.yul\":12057:12096   */\n      tag_292\n        /* \"#utility.yul\":12094:12095   */\n      0x00\n        /* \"#utility.yul\":12087:12092   */\n      dup3\n        /* \"#utility.yul\":12057:12096   */\n      tag_140\n      jump\t// in\n    tag_292:\n        /* \"#utility.yul\":12030:12031   */\n      0x01\n        /* \"#utility.yul\":12023:12028   */\n      dup2\n        /* \"#utility.yul\":12019:12032   */\n      add\n        /* \"#utility.yul\":12010:12032   */\n      swap1\n      pop\n        /* \"#utility.yul\":11986:12106   */\n      jump(tag_289)\n    tag_291:\n        /* \"#utility.yul\":11926:12112   */\n      pop\n      pop\n      jump\t// out\n        /* \"#utility.yul\":12118:12661   */\n    tag_142:\n        /* \"#utility.yul\":12219:12221   */\n      0x1f\n        /* \"#utility.yul\":12214:12217   */\n      dup3\n        /* \"#utility.yul\":12211:12222   */\n      gt\n        /* \"#utility.yul\":12208:12654   */\n      iszero\n      tag_294\n      jumpi\n        /* \"#utility.yul\":12253:12291   */\n      tag_295\n        /* \"#utility.yul\":12285:12290   */\n      dup2\n        /* \"#utility.yul\":12253:12291   */\n      tag_131\n      jump\t// in\n    tag_295:\n        /* \"#utility.yul\":12337:12366   */\n      tag_296\n        /* \"#utility.yul\":12355:12365   */\n      dup5\n        /* \"#utility.yul\":12337:12366   */\n      tag_132\n      jump\t// in\n    tag_296:\n        /* \"#utility.yul\":12327:12335   */\n      dup2\n        /* \"#utility.yul\":12323:12367   */\n      add\n        /* \"#utility.yul\":12520:12522   */\n      0x20\n        /* \"#utility.yul\":12508:12518   */\n      dup6\n        /* \"#utility.yul\":12505:12523   */\n      lt\n        /* \"#utility.yul\":12502:12551   */\n      iszero\n      tag_297\n      jumpi\n        /* \"#utility.yul\":12541:12549   */\n      dup2\n        /* \"#utility.yul\":12526:12549   */\n      swap1\n      pop\n        /* \"#utility.yul\":12502:12551   */\n    tag_297:\n        /* \"#utility.yul\":12564:12644   */\n      tag_298\n        /* \"#utility.yul\":12620:12642   */\n      tag_299\n        /* \"#utility.yul\":12638:12641   */\n      dup6\n        /* \"#utility.yul\":12620:12642   */\n      tag_132\n      jump\t// in\n    tag_299:\n        /* \"#utility.yul\":12610:12618   */\n      dup4\n        /* \"#utility.yul\":12606:12643   */\n      add\n        /* \"#utility.yul\":12593:12604   */\n      dup3\n        /* \"#utility.yul\":12564:12644   */\n      tag_141\n      jump\t// in\n    tag_298:\n        /* \"#utility.yul\":12223:12654   */\n      pop\n      pop\n        /* \"#utility.yul\":12208:12654   */\n    tag_294:\n        /* \"#utility.yul\":12118:12661   */\n      pop\n      pop\n      pop\n      jump\t// out\n        /* \"#utility.yul\":12667:12784   */\n    tag_143:\n        /* \"#utility.yul\":12721:12729   */\n      0x00\n        /* \"#utility.yul\":12771:12776   */\n      dup3\n        /* \"#utility.yul\":12765:12769   */\n      dup3\n        /* \"#utility.yul\":12761:12777   */\n      shr\n        /* \"#utility.yul\":12740:12777   */\n      swap1\n      pop\n        /* \"#utility.yul\":12667:12784   */\n      swap3\n      swap2\n      pop\n      pop\n      jump\t// out\n        /* \"#utility.yul\":12790:12959   */\n    tag_144:\n        /* \"#utility.yul\":12834:12840   */\n      0x00\n        /* \"#utility.yul\":12867:12918   */\n      tag_302\n        /* \"#utility.yul\":12915:12916   */\n      0x00\n        /* \"#utility.yul\":12911:12917   */\n      not\n        /* \"#utility.yul\":12903:12908   */\n      dup5\n        /* \"#utility.yul\":12900:12901   */\n      0x08\n        /* \"#utility.yul\":12896:12909   */\n      mul\n        /* \"#utility.yul\":12867:12918   */\n      tag_143\n      jump\t// in\n    tag_302:\n        /* \"#utility.yul\":12863:12919   */\n      not\n        /* \"#utility.yul\":12948:12952   */\n      dup1\n        /* \"#utility.yul\":12942:12946   */\n      dup4\n        /* \"#utility.yul\":12938:12953   */\n      and\n        /* \"#utility.yul\":12928:12953   */\n      swap2\n      pop\n        /* \"#utility.yul\":12841:12959   */\n      pop\n        /* \"#utility.yul\":12790:12959   */\n      swap3\n      swap2\n      pop\n      pop\n      jump\t// out\n        /* \"#utility.yul\":12964:13259   */\n    tag_145:\n        /* \"#utility.yul\":13040:13044   */\n      0x00\n        /* \"#utility.yul\":13186:13215   */\n      tag_304\n        /* \"#utility.yul\":13211:13214   */\n      dup4\n        /* \"#utility.yul\":13205:13209   */\n      dup4\n        /* \"#utility.yul\":13186:13215   */\n      tag_144\n      jump\t// in\n    tag_304:\n        /* \"#utility.yul\":13178:13215   */\n      swap2\n      pop\n        /* \"#utility.yul\":13248:13251   */\n      dup3\n        /* \"#utility.yul\":13245:13246   */\n      0x02\n        /* \"#utility.yul\":13241:13252   */\n      mul\n        /* \"#utility.yul\":13235:13239   */\n      dup3\n        /* \"#utility.yul\":13232:13253   */\n      or\n        /* \"#utility.yul\":13224:13253   */\n      swap1\n      pop\n        /* \"#utility.yul\":12964:13259   */\n      swap3\n      swap2\n      pop\n      pop\n      jump\t// out\n        /* \"#utility.yul\":13264:14659   */\n    tag_88:\n        /* \"#utility.yul\":13381:13418   */\n      tag_306\n        /* \"#utility.yul\":13414:13417   */\n      dup3\n        /* \"#utility.yul\":13381:13418   */\n      tag_110\n      jump\t// in\n    tag_306:\n        /* \"#utility.yul\":13483:13501   */\n      0xffffffffffffffff\n        /* \"#utility.yul\":13475:13481   */\n      dup2\n        /* \"#utility.yul\":13472:13502   */\n      gt\n        /* \"#utility.yul\":13469:13525   */\n      iszero\n      tag_307\n      jumpi\n        /* \"#utility.yul\":13505:13523   */\n      tag_308\n      tag_119\n      jump\t// in\n    tag_308:\n        /* \"#utility.yul\":13469:13525   */\n    tag_307:\n        /* \"#utility.yul\":13549:13587   */\n      tag_309\n        /* \"#utility.yul\":13581:13585   */\n      dup3\n        /* \"#utility.yul\":13575:13586   */\n      sload\n        /* \"#utility.yul\":13549:13587   */\n      tag_77\n      jump\t// in\n    tag_309:\n        /* \"#utility.yul\":13634:13701   */\n      tag_310\n        /* \"#utility.yul\":13694:13700   */\n      dup3\n        /* \"#utility.yul\":13686:13692   */\n      dup3\n        /* \"#utility.yul\":13680:13684   */\n      dup6\n        /* \"#utility.yul\":13634:13701   */\n      tag_142\n      jump\t// in\n    tag_310:\n        /* \"#utility.yul\":13728:13729   */\n      0x00\n        /* \"#utility.yul\":13752:13756   */\n      0x20\n        /* \"#utility.yul\":13739:13756   */\n      swap1\n      pop\n        /* \"#utility.yul\":13784:13786   */\n      0x1f\n        /* \"#utility.yul\":13776:13782   */\n      dup4\n        /* \"#utility.yul\":13773:13787   */\n      gt\n        /* \"#utility.yul\":13801:13802   */\n      0x01\n        /* \"#utility.yul\":13796:14414   */\n      dup2\n      eq\n      tag_312\n      jumpi\n        /* \"#utility.yul\":14458:14459   */\n      0x00\n        /* \"#utility.yul\":14475:14481   */\n      dup5\n        /* \"#utility.yul\":14472:14549   */\n      iszero\n      tag_313\n      jumpi\n        /* \"#utility.yul\":14524:14533   */\n      dup3\n        /* \"#utility.yul\":14519:14522   */\n      dup8\n        /* \"#utility.yul\":14515:14534   */\n      add\n        /* \"#utility.yul\":14509:14535   */\n      mload\n        /* \"#utility.yul\":14500:14535   */\n      swap1\n      pop\n        /* \"#utility.yul\":14472:14549   */\n    tag_313:\n        /* \"#utility.yul\":14575:14642   */\n      tag_314\n        /* \"#utility.yul\":14635:14641   */\n      dup6\n        /* \"#utility.yul\":14628:14633   */\n      dup3\n        /* \"#utility.yul\":14575:14642   */\n      tag_145\n      jump\t// in\n    tag_314:\n        /* \"#utility.yul\":14569:14573   */\n      dup7\n        /* \"#utility.yul\":14562:14643   */\n      sstore\n        /* \"#utility.yul\":14431:14653   */\n      pop\n        /* \"#utility.yul\":13766:14653   */\n      jump(tag_311)\n        /* \"#utility.yul\":13796:14414   */\n    tag_312:\n        /* \"#utility.yul\":13848:13852   */\n      0x1f\n        /* \"#utility.yul\":13844:13853   */\n      not\n        /* \"#utility.yul\":13836:13842   */\n      dup5\n        /* \"#utility.yul\":13832:13854   */\n      and\n        /* \"#utility.yul\":13882:13919   */\n      tag_315\n        /* \"#utility.yul\":13914:13918   */\n      dup7\n        /* \"#utility.yul\":13882:13919   */\n      tag_131\n      jump\t// in\n    tag_315:\n        /* \"#utility.yul\":13941:13942   */\n      0x00\n        /* \"#utility.yul\":13955:14163   */\n    tag_316:\n        /* \"#utility.yul\":13969:13976   */\n      dup3\n        /* \"#utility.yul\":13966:13967   */\n      dup2\n        /* \"#utility.yul\":13963:13977   */\n      lt\n        /* \"#utility.yul\":13955:14163   */\n      iszero\n      tag_318\n      jumpi\n        /* \"#utility.yul\":14048:14057   */\n      dup5\n        /* \"#utility.yul\":14043:14046   */\n      dup10\n        /* \"#utility.yul\":14039:14058   */\n      add\n        /* \"#utility.yul\":14033:14059   */\n      mload\n        /* \"#utility.yul\":14025:14031   */\n      dup3\n        /* \"#utility.yul\":14018:14060   */\n      sstore\n        /* \"#utility.yul\":14099:14100   */\n      0x01\n        /* \"#utility.yul\":14091:14097   */\n      dup3\n        /* \"#utility.yul\":14087:14101   */\n      add\n        /* \"#utility.yul\":14077:14101   */\n      swap2\n      pop\n        /* \"#utility.yul\":14146:14148   */\n      0x20\n        /* \"#utility.yul\":14135:14144   */\n      dup6\n        /* \"#utility.yul\":14131:14149   */\n      add\n        /* \"#utility.yul\":14118:14149   */\n      swap5\n      pop\n        /* \"#utility.yul\":13992:13996   */\n      0x20\n        /* \"#utility.yul\":13989:13990   */\n      dup2\n        /* \"#utility.yul\":13985:13997   */\n      add\n        /* \"#utility.yul\":13980:13997   */\n      swap1\n      pop\n        /* \"#utility.yul\":13955:14163   */\n      jump(tag_316)\n    tag_318:\n        /* \"#utility.yul\":14191:14197   */\n      dup7\n        /* \"#utility.yul\":14182:14189   */\n      dup4\n        /* \"#utility.yul\":14179:14198   */\n      lt\n        /* \"#utility.yul\":14176:14355   */\n      iszero\n      tag_319\n      jumpi\n        /* \"#utility.yul\":14249:14258   */\n      dup5\n        /* \"#utility.yul\":14244:14247   */\n      dup10\n        /* \"#utility.yul\":14240:14259   */\n      add\n        /* \"#utility.yul\":14234:14260   */\n      mload\n        /* \"#utility.yul\":14292:14340   */\n      tag_320\n        /* \"#utility.yul\":14334:14338   */\n      0x1f\n        /* \"#utility.yul\":14326:14332   */\n      dup10\n        /* \"#utility.yul\":14322:14339   */\n      and\n        /* \"#utility.yul\":14311:14320   */\n      dup3\n        /* \"#utility.yul\":14292:14340   */\n      tag_144\n      jump\t// in\n    tag_320:\n        /* \"#utility.yul\":14284:14290   */\n      dup4\n        /* \"#utility.yul\":14277:14341   */\n      sstore\n        /* \"#utility.yul\":14199:14355   */\n      pop\n        /* \"#utility.yul\":14176:14355   */\n    tag_319:\n        /* \"#utility.yul\":14401:14402   */\n      0x01\n        /* \"#utility.yul\":14397:14398   */\n      0x02\n        /* \"#utility.yul\":14389:14395   */\n      dup9\n        /* \"#utility.yul\":14385:14399   */\n      mul\n        /* \"#utility.yul\":14381:14403   */\n      add\n        /* \"#utility.yul\":14375:14379   */\n      dup9\n        /* \"#utility.yul\":14368:14404   */\n      sstore\n        /* \"#utility.yul\":13803:14414   */\n      pop\n      pop\n      pop\n        /* \"#utility.yul\":13766:14653   */\n    tag_311:\n      pop\n        /* \"#utility.yul\":13356:14659   */\n      pop\n      pop\n      pop\n        /* \"#utility.yul\":13264:14659   */\n      pop\n      pop\n      jump\t// out\n\n    auxdata: 0xa2646970667358221220970facdb6871997f197bbe05025c0632d3ed55159e77f2a7de9fc06f49da72c664736f6c634300080f0033\n}\n","bytecode":{"linkReferences":{},"object":"60806040523480156200001157600080fd5b50604051620012443803806200124483398181016040528101906200003791906200012c565b80600260006101000a81548173ffffffffffffffffffffffffffffffffffffffff021916908373ffffffffffffffffffffffffffffffffffffffff16021790555081600381905550505062000173565b600080fd5b6000819050919050565b620000a1816200008c565b8114620000ad57600080fd5b50565b600081519050620000c18162000096565b92915050565b600073ffffffffffffffffffffffffffffffffffffffff82169050919050565b6000620000f482620000c7565b9050919050565b6200010681620000e7565b81146200011257600080fd5b50565b6000815190506200012681620000fb565b92915050565b6000806040838503121562000146576200014562000087565b5b60006200015685828601620000b0565b9250506020620001698582860162000115565b9150509250929050565b6110c180620001836000396000f3fe60806040526004361061009c5760003560e01c806382fde0931161006457806382fde093146101a25780638a9cfd55146101cd578063937e09b1146101f6578063b1b1643114610221578063d7bb99ba1461024c578063d7d1bbdb146102565761009c565b806303441006146100a15780630a144391146100ca5780634051ddac14610107578063481c6a751461013657806381d12c5814610161575b600080fd5b3480156100ad57600080fd5b506100c860048036038101906100c3919061085d565b61027f565b005b3480156100d657600080fd5b506100f160048036038101906100ec91906108e8565b6103ba565b6040516100fe9190610930565b60405180910390f35b34801561011357600080fd5b5061011c6103da565b60405161012d959493929190610969565b60405180910390f35b34801561014257600080fd5b5061014b610420565b60405161015891906109bc565b60405180910390f35b34801561016d57600080fd5b506101886004803603810190610183919061085d565b610446565b604051610199959493929190610a91565b60405180910390f35b3480156101ae57600080fd5b506101b7610531565b6040516101c49190610aeb565b60405180910390f35b3480156101d957600080fd5b506101f460048036038101906101ef9190610c67565b610537565b005b34801561020257600080fd5b5061020b610648565b6040516102189190610aeb565b60405180910390f35b34801561022d57600080fd5b5061023661064e565b6040516102439190610aeb565b60405180910390f35b610254610654565b005b34801561026257600080fd5b5061027d6004803603810190610278919061085d565b6106d5565b005b600260009054906101000a900473ffffffffffffffffffffffffffffffffffffffff1673ffffffffffffffffffffffffffffffffffffffff163373ffffffffffffffffffffffffffffffffffffffff16146102d957600080fd5b60006001600083815260200190815260200160002090508060020160149054906101000a900460ff161561030c57600080fd5b600260055461031b9190610d34565b81600301541161032a57600080fd5b8060020160009054906101000a900473ffffffffffffffffffffffffffffffffffffffff1673ffffffffffffffffffffffffffffffffffffffff166108fc82600101549081150290604051600060405180830381858888f19350505050158015610398573d6000803e3d6000fd5b5060018160020160146101000a81548160ff0219169083151502179055505050565b60046020528060005260406000206000915054906101000a900460ff1681565b600080600080600060035447600054600554600260009054906101000a900473ffffffffffffffffffffffffffffffffffffffff16945094509450945094509091929394565b600260009054906101000a900473ffffffffffffffffffffffffffffffffffffffff1681565b600160205280600052604060002060009150905080600001805461046990610d94565b80601f016020809104026020016040519081016040528092919081815260200182805461049590610d94565b80156104e25780601f106104b7576101008083540402835291602001916104e2565b820191906000526020600020905b8154815290600101906020018083116104c557829003601f168201915b5050505050908060010154908060020160009054906101000a900473ffffffffffffffffffffffffffffffffffffffff16908060020160149054906101000a900460ff16908060030154905085565b60055481565b600260009054906101000a900473ffffffffffffffffffffffffffffffffffffffff1673ffffffffffffffffffffffffffffffffffffffff163373ffffffffffffffffffffffffffffffffffffffff161461059157600080fd5b6000600160008060008154809291906105a990610dc5565b9190505581526020019081526020016000209050838160000190816105ce9190610fb9565b50828160010181905550818160020160006101000a81548173ffffffffffffffffffffffffffffffffffffffff021916908373ffffffffffffffffffffffffffffffffffffffff16021790555060008160020160146101000a81548160ff0219169083151502179055506000816003018190555050505050565b60035481565b60005481565b60035434101561066357600080fd5b6001600460003373ffffffffffffffffffffffffffffffffffffffff1673ffffffffffffffffffffffffffffffffffffffff16815260200190815260200160002060006101000a81548160ff021916908315150217905550600560008154809291906106ce90610dc5565b9190505550565b6000600160008381526020019081526020016000209050600460003373ffffffffffffffffffffffffffffffffffffffff1673ffffffffffffffffffffffffffffffffffffffff16815260200190815260200160002060009054906101000a900460ff1661074257600080fd5b8060040160003373ffffffffffffffffffffffffffffffffffffffff1673ffffffffffffffffffffffffffffffffffffffff16815260200190815260200160002060009054906101000a900460ff161561079b57600080fd5b60018160040160003373ffffffffffffffffffffffffffffffffffffffff1673ffffffffffffffffffffffffffffffffffffffff16815260200190815260200160002060006101000a81548160ff02191690831515021790555080600301600081548092919061080a90610dc5565b91905055505050565b6000604051905090565b600080fd5b600080fd5b6000819050919050565b61083a81610827565b811461084557600080fd5b50565b60008135905061085781610831565b92915050565b6000602082840312156108735761087261081d565b5b600061088184828501610848565b91505092915050565b600073ffffffffffffffffffffffffffffffffffffffff82169050919050565b60006108b58261088a565b9050919050565b6108c5816108aa565b81146108d057600080fd5b50565b6000813590506108e2816108bc565b92915050565b6000602082840312156108fe576108fd61081d565b5b600061090c848285016108d3565b91505092915050565b60008115159050919050565b61092a81610915565b82525050565b60006020820190506109456000830184610921565b92915050565b61095481610827565b82525050565b610963816108aa565b82525050565b600060a08201905061097e600083018861094b565b61098b602083018761094b565b610998604083018661094b565b6109a5606083018561094b565b6109b2608083018461095a565b9695505050505050565b60006020820190506109d1600083018461095a565b92915050565b600081519050919050565b600082825260208201905092915050565b60005b83811015610a115780820151818401526020810190506109f6565b83811115610a20576000848401525b50505050565b6000601f19601f8301169050919050565b6000610a42826109d7565b610a4c81856109e2565b9350610a5c8185602086016109f3565b610a6581610a26565b840191505092915050565b6000610a7b8261088a565b9050919050565b610a8b81610a70565b82525050565b600060a0820190508181036000830152610aab8188610a37565b9050610aba602083018761094b565b610ac76040830186610a82565b610ad46060830185610921565b610ae1608083018461094b565b9695505050505050565b6000602082019050610b00600083018461094b565b92915050565b600080fd5b600080fd5b7f4e487b7100000000000000000000000000000000000000000000000000000000600052604160045260246000fd5b610b4882610a26565b810181811067ffffffffffffffff82111715610b6757610b66610b10565b5b80604052505050565b6000610b7a610813565b9050610b868282610b3f565b919050565b600067ffffffffffffffff821115610ba657610ba5610b10565b5b610baf82610a26565b9050602081019050919050565b82818337600083830152505050565b6000610bde610bd984610b8b565b610b70565b905082815260208101848484011115610bfa57610bf9610b0b565b5b610c05848285610bbc565b509392505050565b600082601f830112610c2257610c21610b06565b5b8135610c32848260208601610bcb565b91505092915050565b610c4481610a70565b8114610c4f57600080fd5b50565b600081359050610c6181610c3b565b92915050565b600080600060608486031215610c8057610c7f61081d565b5b600084013567ffffffffffffffff811115610c9e57610c9d610822565b5b610caa86828701610c0d565b9350506020610cbb86828701610848565b9250506040610ccc86828701610c52565b9150509250925092565b7f4e487b7100000000000000000000000000000000000000000000000000000000600052601260045260246000fd5b7f4e487b7100000000000000000000000000000000000000000000000000000000600052601160045260246000fd5b6000610d3f82610827565b9150610d4a83610827565b925082610d5a57610d59610cd6565b5b828204905092915050565b7f4e487b7100000000000000000000000000000000000000000000000000000000600052602260045260246000fd5b60006002820490506001821680610dac57607f821691505b602082108103610dbf57610dbe610d65565b5b50919050565b6000610dd082610827565b91507fffffffffffffffffffffffffffffffffffffffffffffffffffffffffffffffff8203610e0257610e01610d05565b5b600182019050919050565b60008190508160005260206000209050919050565b60006020601f8301049050919050565b600082821b905092915050565b600060088302610e6f7fffffffffffffffffffffffffffffffffffffffffffffffffffffffffffffffff82610e32565b610e798683610e32565b95508019841693508086168417925050509392505050565b6000819050919050565b6000610eb6610eb1610eac84610827565b610e91565b610827565b9050919050565b6000819050919050565b610ed083610e9b565b610ee4610edc82610ebd565b848454610e3f565b825550505050565b600090565b610ef9610eec565b610f04818484610ec7565b505050565b5b81811015610f2857610f1d600082610ef1565b600181019050610f0a565b5050565b601f821115610f6d57610f3e81610e0d565b610f4784610e22565b81016020851015610f56578190505b610f6a610f6285610e22565b830182610f09565b50505b505050565b600082821c905092915050565b6000610f9060001984600802610f72565b1980831691505092915050565b6000610fa98383610f7f565b9150826002028217905092915050565b610fc2826109d7565b67ffffffffffffffff811115610fdb57610fda610b10565b5b610fe58254610d94565b610ff0828285610f2c565b600060209050601f8311600181146110235760008415611011578287015190505b61101b8582610f9d565b865550611083565b601f19841661103186610e0d565b60005b8281101561105957848901518255600182019150602085019450602081019050611034565b868310156110765784890151611072601f891682610f7f565b8355505b6001600288020188555050505b50505050505056fea2646970667358221220970facdb6871997f197bbe05025c0632d3ed55159e77f2a7de9fc06f49da72c664736f6c634300080f0033","opcodes":"PUSH1 0x80 PUSH1 0x40 MSTORE CALLVALUE DUP1 ISZERO PUSH3 0x11 JUMPI PUSH1 0x0 DUP1 REVERT JUMPDEST POP PUSH1 0x40 MLOAD PUSH3 0x1244 CODESIZE SUB DUP1 PUSH3 0x1244 DUP4 CODECOPY DUP2 DUP2 ADD PUSH1 0x40 MSTORE DUP2 ADD SWAP1 PUSH3 0x37 SWAP2 SWAP1 PUSH3 0x12C JUMP JUMPDEST DUP1 PUSH1 0x2 PUSH1 0x0 PUSH2 0x100 EXP DUP2 SLOAD DUP2 PUSH20 0xFFFFFFFFFFFFFFFFFFFFFFFFFFFFFFFFFFFFFFFF MUL NOT AND SWAP1 DUP4 PUSH20 0xFFFFFFFFFFFFFFFFFFFFFFFFFFFFFFFFFFFFFFFF AND MUL OR SWAP1 SSTORE POP DUP2 PUSH1 0x3 DUP2 SWAP1 SSTORE POP POP POP PUSH3 0x173 JUMP JUMPDEST PUSH1 0x0 DUP1 REVERT JUMPDEST PUSH1 0x0 DUP2 SWAP1 POP SWAP2 SWAP1 POP JUMP JUMPDEST PUSH3 0xA1 DUP2 PUSH3 0x8C JUMP JUMPDEST DUP2 EQ PUSH3 0xAD JUMPI PUSH1 0x0 DUP1 REVERT JUMPDEST POP JUMP JUMPDEST PUSH1 0x0 DUP2 MLOAD SWAP1 POP PUSH3 0xC1 DUP2 PUSH3 0x96 JUMP JUMPDEST SWAP3 SWAP2 POP POP JUMP JUMPDEST PUSH1 0x0 PUSH20 0xFFFFFFFFFFFFFFFFFFFFFFFFFFFFFFFFFFFFFFFF DUP3 AND SWAP1 POP SWAP2 SWAP1 POP JUMP JUMPDEST PUSH1 0x0 PUSH3 0xF4 DUP3 PUSH3 0xC7 JUMP JUMPDEST SWAP1 POP SWAP2 SWAP1 POP JUMP JUMPDEST PUSH3 0x106 DUP2 PUSH3 0xE7 JUMP JUMPDEST DUP2 EQ PUSH3 0x112 JUMPI PUSH1 0x0 DUP1 REVERT JUMPDEST POP JUMP JUMPDEST PUSH1 0x0 DUP2 MLOAD SWAP1 POP PUSH3 0x126 DUP2 PUSH3 0xFB JUMP JUMPDEST SWAP3 SWAP2 POP POP JUMP JUMPDEST PUSH1 0x0 DUP1 PUSH1 0x40 DUP4 DUP6 SUB SLT ISZERO PUSH3 0x146 JUMPI PUSH3 0x145 PUSH3 0x87 JUMP JUMPDEST JUMPDEST PUSH1 0x0 PUSH3 0x156 DUP6 DUP3 DUP7 ADD PUSH3 0xB0 JUMP JUMPDEST SWAP3 POP POP PUSH1 0x20 PUSH3 0x169 DUP6 DUP3 DUP7 ADD PUSH3 0x115 JUMP JUMPDEST SWAP2 POP POP SWAP3 POP SWAP3 SWAP1 POP JUMP JUMPDEST PUSH2 0x10C1 DUP1 PUSH3 0x183 PUSH1 0x0 CODECOPY PUSH1 0x0 RETURN INVALID PUSH1 0x80 PUSH1 0x40 MSTORE PUSH1 0x4 CALLDATASIZE LT PUSH2 0x9C JUMPI PUSH1 0x0 CALLDATALOAD PUSH1 0xE0 SHR DUP1 PUSH4 0x82FDE093 GT PUSH2 0x64 JUMPI DUP1 PUSH4 0x82FDE093 EQ PUSH2 0x1A2 JUMPI DUP1 PUSH4 0x8A9CFD55 EQ PUSH2 0x1CD JUMPI DUP1 PUSH4 0x937E09B1 EQ PUSH2 0x1F6 JUMPI DUP1 PUSH4 0xB1B16431 EQ PUSH2 0x221 JUMPI DUP1 PUSH4 0xD7BB99BA EQ PUSH2 0x24C JUMPI DUP1 PUSH4 0xD7D1BBDB EQ PUSH2 0x256 JUMPI PUSH2 0x9C JUMP JUMPDEST DUP1 PUSH4 0x3441006 EQ PUSH2 0xA1 JUMPI DUP1 PUSH4 0xA144391 EQ PUSH2 0xCA JUMPI DUP1 PUSH4 0x4051DDAC EQ PUSH2 0x107 JUMPI DUP1 PUSH4 0x481C6A75 EQ PUSH2 0x136 JUMPI DUP1 PUSH4 0x81D12C58 EQ PUSH2 0x161 JUMPI JUMPDEST PUSH1 0x0 DUP1 REVERT JUMPDEST CALLVALUE DUP1 ISZERO PUSH2 0xAD JUMPI PUSH1 0x0 DUP1 REVERT JUMPDEST POP PUSH2 0xC8 PUSH1 0x4 DUP1 CALLDATASIZE SUB DUP2 ADD SWAP1 PUSH2 0xC3 SWAP2 SWAP1 PUSH2 0x85D JUMP JUMPDEST PUSH2 0x27F JUMP JUMPDEST STOP JUMPDEST CALLVALUE DUP1 ISZERO PUSH2 0xD6 JUMPI PUSH1 0x0 DUP1 REVERT JUMPDEST POP PUSH2 0xF1 PUSH1 0x4 DUP1 CALLDATASIZE SUB DUP2 ADD SWAP1 PUSH2 0xEC SWAP2 SWAP1 PUSH2 0x8E8 JUMP JUMPDEST PUSH2 0x3BA JUMP JUMPDEST PUSH1 0x40 MLOAD PUSH2 0xFE SWAP2 SWAP1 PUSH2 0x930 JUMP JUMPDEST PUSH1 0x40 MLOAD DUP1 SWAP2 SUB SWAP1 RETURN JUMPDEST CALLVALUE DUP1 ISZERO PUSH2 0x113 JUMPI PUSH1 0x0 DUP1 REVERT JUMPDEST POP PUSH2 0x11C PUSH2 0x3DA JUMP JUMPDEST PUSH1 0x40 MLOAD PUSH2 0x12D SWAP6 SWAP5 SWAP4 SWAP3 SWAP2 SWAP1 PUSH2 0x969 JUMP JUMPDEST PUSH1 0x40 MLOAD DUP1 SWAP2 SUB SWAP1 RETURN JUMPDEST CALLVALUE DUP1 ISZERO PUSH2 0x142 JUMPI PUSH1 0x0 DUP1 REVERT JUMPDEST POP PUSH2 0x14B PUSH2 0x420 JUMP JUMPDEST PUSH1 0x40 MLOAD PUSH2 0x158 SWAP2 SWAP1 PUSH2 0x9BC JUMP JUMPDEST PUSH1 0x40 MLOAD DUP1 SWAP2 SUB SWAP1 RETURN JUMPDEST CALLVALUE DUP1 ISZERO PUSH2 0x16D JUMPI PUSH1 0x0 DUP1 REVERT JUMPDEST POP PUSH2 0x188 PUSH1 0x4 DUP1 CALLDATASIZE SUB DUP2 ADD SWAP1 PUSH2 0x183 SWAP2 SWAP1 PUSH2 0x85D JUMP JUMPDEST PUSH2 0x446 JUMP JUMPDEST PUSH1 0x40 MLOAD PUSH2 0x199 SWAP6 SWAP5 SWAP4 SWAP3 SWAP2 SWAP1 PUSH2 0xA91 JUMP JUMPDEST PUSH1 0x40 MLOAD DUP1 SWAP2 SUB SWAP1 RETURN JUMPDEST CALLVALUE DUP1 ISZERO PUSH2 0x1AE JUMPI PUSH1 0x0 DUP1 REVERT JUMPDEST POP PUSH2 0x1B7 PUSH2 0x531 JUMP JUMPDEST PUSH1 0x40 MLOAD PUSH2 0x1C4 SWAP2 SWAP1 PUSH2 0xAEB JUMP JUMPDEST PUSH1 0x40 MLOAD DUP1 SWAP2 SUB SWAP1 RETURN JUMPDEST CALLVALUE DUP1 ISZERO PUSH2 0x1D9 JUMPI PUSH1 0x0 DUP1 REVERT JUMPDEST POP PUSH2 0x1F4 PUSH1 0x4 DUP1 CALLDATASIZE SUB DUP2 ADD SWAP1 PUSH2 0x1EF SWAP2 SWAP1 PUSH2 0xC67 JUMP JUMPDEST PUSH2 0x537 JUMP JUMPDEST STOP JUMPDEST CALLVALUE DUP1 ISZERO PUSH2 0x202 JUMPI PUSH1 0x0 DUP1 REVERT JUMPDEST POP PUSH2 0x20B PUSH2 0x648 JUMP JUMPDEST PUSH1 0x40 MLOAD PUSH2 0x218 SWAP2 SWAP1 PUSH2 0xAEB JUMP JUMPDEST PUSH1 0x40 MLOAD DUP1 SWAP2 SUB SWAP1 RETURN JUMPDEST CALLVALUE DUP1 ISZERO PUSH2 0x22D JUMPI PUSH1 0x0 DUP1 REVERT JUMPDEST POP PUSH2 0x236 PUSH2 0x64E JUMP JUMPDEST PUSH1 0x40 MLOAD PUSH2 0x243 SWAP2 SWAP1 PUSH2 0xAEB JUMP JUMPDEST PUSH1 0x40 MLOAD DUP1 SWAP2 SUB SWAP1 RETURN JUMPDEST PUSH2 0x254 PUSH2 0x654 JUMP JUMPDEST STOP JUMPDEST CALLVALUE DUP1 ISZERO PUSH2 0x262 JUMPI PUSH1 0x0 DUP1 REVERT JUMPDEST POP PUSH2 0x27D PUSH1 0x4 DUP1 CALLDATASIZE SUB DUP2 ADD SWAP1 PUSH2 0x278 SWAP2 SWAP1 PUSH2 0x85D JUMP JUMPDEST PUSH2 0x6D5 JUMP JUMPDEST STOP JUMPDEST PUSH1 0x2 PUSH1 0x0 SWAP1 SLOAD SWAP1 PUSH2 0x100 EXP SWAP1 DIV PUSH20 0xFFFFFFFFFFFFFFFFFFFFFFFFFFFFFFFFFFFFFFFF AND PUSH20 0xFFFFFFFFFFFFFFFFFFFFFFFFFFFFFFFFFFFFFFFF AND CALLER PUSH20 0xFFFFFFFFFFFFFFFFFFFFFFFFFFFFFFFFFFFFFFFF AND EQ PUSH2 0x2D9 JUMPI PUSH1 0x0 DUP1 REVERT JUMPDEST PUSH1 0x0 PUSH1 0x1 PUSH1 0x0 DUP4 DUP2 MSTORE PUSH1 0x20 ADD SWAP1 DUP2 MSTORE PUSH1 0x20 ADD PUSH1 0x0 KECCAK256 SWAP1 POP DUP1 PUSH1 0x2 ADD PUSH1 0x14 SWAP1 SLOAD SWAP1 PUSH2 0x100 EXP SWAP1 DIV PUSH1 0xFF AND ISZERO PUSH2 0x30C JUMPI PUSH1 0x0 DUP1 REVERT JUMPDEST PUSH1 0x2 PUSH1 0x5 SLOAD PUSH2 0x31B SWAP2 SWAP1 PUSH2 0xD34 JUMP JUMPDEST DUP2 PUSH1 0x3 ADD SLOAD GT PUSH2 0x32A JUMPI PUSH1 0x0 DUP1 REVERT JUMPDEST DUP1 PUSH1 0x2 ADD PUSH1 0x0 SWAP1 SLOAD SWAP1 PUSH2 0x100 EXP SWAP1 DIV PUSH20 0xFFFFFFFFFFFFFFFFFFFFFFFFFFFFFFFFFFFFFFFF AND PUSH20 0xFFFFFFFFFFFFFFFFFFFFFFFFFFFFFFFFFFFFFFFF AND PUSH2 0x8FC DUP3 PUSH1 0x1 ADD SLOAD SWAP1 DUP2 ISZERO MUL SWAP1 PUSH1 0x40 MLOAD PUSH1 0x0 PUSH1 0x40 MLOAD DUP1 DUP4 SUB DUP2 DUP6 DUP9 DUP9 CALL SWAP4 POP POP POP POP ISZERO DUP1 ISZERO PUSH2 0x398 JUMPI RETURNDATASIZE PUSH1 0x0 DUP1 RETURNDATACOPY RETURNDATASIZE PUSH1 0x0 REVERT JUMPDEST POP PUSH1 0x1 DUP2 PUSH1 0x2 ADD PUSH1 0x14 PUSH2 0x100 EXP DUP2 SLOAD DUP2 PUSH1 0xFF MUL NOT AND SWAP1 DUP4 ISZERO ISZERO MUL OR SWAP1 SSTORE POP POP POP JUMP JUMPDEST PUSH1 0x4 PUSH1 0x20 MSTORE DUP1 PUSH1 0x0 MSTORE PUSH1 0x40 PUSH1 0x0 KECCAK256 PUSH1 0x0 SWAP2 POP SLOAD SWAP1 PUSH2 0x100 EXP SWAP1 DIV PUSH1 0xFF AND DUP2 JUMP JUMPDEST PUSH1 0x0 DUP1 PUSH1 0x0 DUP1 PUSH1 0x0 PUSH1 0x3 SLOAD SELFBALANCE PUSH1 0x0 SLOAD PUSH1 0x5 SLOAD PUSH1 0x2 PUSH1 0x0 SWAP1 SLOAD SWAP1 PUSH2 0x100 EXP SWAP1 DIV PUSH20 0xFFFFFFFFFFFFFFFFFFFFFFFFFFFFFFFFFFFFFFFF AND SWAP5 POP SWAP5 POP SWAP5 POP SWAP5 POP SWAP5 POP SWAP1 SWAP2 SWAP3 SWAP4 SWAP5 JUMP JUMPDEST PUSH1 0x2 PUSH1 0x0 SWAP1 SLOAD SWAP1 PUSH2 0x100 EXP SWAP1 DIV PUSH20 0xFFFFFFFFFFFFFFFFFFFFFFFFFFFFFFFFFFFFFFFF AND DUP2 JUMP JUMPDEST PUSH1 0x1 PUSH1 0x20 MSTORE DUP1 PUSH1 0x0 MSTORE PUSH1 0x40 PUSH1 0x0 KECCAK256 PUSH1 0x0 SWAP2 POP SWAP1 POP DUP1 PUSH1 0x0 ADD DUP1 SLOAD PUSH2 0x469 SWAP1 PUSH2 0xD94 JUMP JUMPDEST DUP1 PUSH1 0x1F ADD PUSH1 0x20 DUP1 SWAP2 DIV MUL PUSH1 0x20 ADD PUSH1 0x40 MLOAD SWAP1 DUP2 ADD PUSH1 0x40 MSTORE DUP1 SWAP3 SWAP2 SWAP1 DUP2 DUP2 MSTORE PUSH1 0x20 ADD DUP3 DUP1 SLOAD PUSH2 0x495 SWAP1 PUSH2 0xD94 JUMP JUMPDEST DUP1 ISZERO PUSH2 0x4E2 JUMPI DUP1 PUSH1 0x1F LT PUSH2 0x4B7 JUMPI PUSH2 0x100 DUP1 DUP4 SLOAD DIV MUL DUP4 MSTORE SWAP2 PUSH1 0x20 ADD SWAP2 PUSH2 0x4E2 JUMP JUMPDEST DUP3 ADD SWAP2 SWAP1 PUSH1 0x0 MSTORE PUSH1 0x20 PUSH1 0x0 KECCAK256 SWAP1 JUMPDEST DUP2 SLOAD DUP2 MSTORE SWAP1 PUSH1 0x1 ADD SWAP1 PUSH1 0x20 ADD DUP1 DUP4 GT PUSH2 0x4C5 JUMPI DUP3 SWAP1 SUB PUSH1 0x1F AND DUP3 ADD SWAP2 JUMPDEST POP POP POP POP POP SWAP1 DUP1 PUSH1 0x1 ADD SLOAD SWAP1 DUP1 PUSH1 0x2 ADD PUSH1 0x0 SWAP1 SLOAD SWAP1 PUSH2 0x100 EXP SWAP1 DIV PUSH20 0xFFFFFFFFFFFFFFFFFFFFFFFFFFFFFFFFFFFFFFFF AND SWAP1 DUP1 PUSH1 0x2 ADD PUSH1 0x14 SWAP1 SLOAD SWAP1 PUSH2 0x100 EXP SWAP1 DIV PUSH1 0xFF AND SWAP1 DUP1 PUSH1 0x3 ADD SLOAD SWAP1 POP DUP6 JUMP JUMPDEST PUSH1 0x5 SLOAD DUP2 JUMP JUMPDEST PUSH1 0x2 PUSH1 0x0 SWAP1 SLOAD SWAP1 PUSH2 0x100 EXP SWAP1 DIV PUSH20 0xFFFFFFFFFFFFFFFFFFFFFFFFFFFFFFFFFFFFFFFF AND PUSH20 0xFFFFFFFFFFFFFFFFFFFFFFFFFFFFFFFFFFFFFFFF AND CALLER PUSH20 0xFFFFFFFFFFFFFFFFFFFFFFFFFFFFFFFFFFFFFFFF AND EQ PUSH2 0x591 JUMPI PUSH1 0x0 DUP1 REVERT JUMPDEST PUSH1 0x0 PUSH1 0x1 PUSH1 0x0 DUP1 PUSH1 0x0 DUP2 SLOAD DUP1 SWAP3 SWAP2 SWAP1 PUSH2 0x5A9 SWAP1 PUSH2 0xDC5 JUMP JUMPDEST SWAP2 SWAP1 POP SSTORE DUP2 MSTORE PUSH1 0x20 ADD SWAP1 DUP2 MSTORE PUSH1 0x20 ADD PUSH1 0x0 KECCAK256 SWAP1 POP DUP4 DUP2 PUSH1 0x0 ADD SWAP1 DUP2 PUSH2 0x5CE SWAP2 SWAP1 PUSH2 0xFB9 JUMP JUMPDEST POP DUP3 DUP2 PUSH1 0x1 ADD DUP2 SWAP1 SSTORE POP DUP2 DUP2 PUSH1 0x2 ADD PUSH1 0x0 PUSH2 0x100 EXP DUP2 SLOAD DUP2 PUSH20 0xFFFFFFFFFFFFFFFFFFFFFFFFFFFFFFFFFFFFFFFF MUL NOT AND SWAP1 DUP4 PUSH20 0xFFFFFFFFFFFFFFFFFFFFFFFFFFFFFFFFFFFFFFFF AND MUL OR SWAP1 SSTORE POP PUSH1 0x0 DUP2 PUSH1 0x2 ADD PUSH1 0x14 PUSH2 0x100 EXP DUP2 SLOAD DUP2 PUSH1 0xFF MUL NOT AND SWAP1 DUP4 ISZERO ISZERO MUL OR SWAP1 SSTORE POP PUSH1 0x0 DUP2 PUSH1 0x3 ADD DUP2 SWAP1 SSTORE POP POP POP POP POP JUMP JUMPDEST PUSH1 0x3 SLOAD DUP2 JUMP JUMPDEST PUSH1 0x0 SLOAD DUP2 JUMP JUMPDEST PUSH1 0x3 SLOAD CALLVALUE LT ISZERO PUSH2 0x663 JUMPI PUSH1 0x0 DUP1 REVERT JUMPDEST PUSH1 0x1 PUSH1 0x4 PUSH1 0x0 CALLER PUSH20 0xFFFFFFFFFFFFFFFFFFFFFFFFFFFFFFFFFFFFFFFF AND PUSH20 0xFFFFFFFFFFFFFFFFFFFFFFFFFFFFFFFFFFFFFFFF AND DUP2 MSTORE PUSH1 0x20 ADD SWAP1 DUP2 MSTORE PUSH1 0x20 ADD PUSH1 0x0 KECCAK256 PUSH1 0x0 PUSH2 0x100 EXP DUP2 SLOAD DUP2 PUSH1 0xFF MUL NOT AND SWAP1 DUP4 ISZERO ISZERO MUL OR SWAP1 SSTORE POP PUSH1 0x5 PUSH1 0x0 DUP2 SLOAD DUP1 SWAP3 SWAP2 SWAP1 PUSH2 0x6CE SWAP1 PUSH2 0xDC5 JUMP JUMPDEST SWAP2 SWAP1 POP SSTORE POP JUMP JUMPDEST PUSH1 0x0 PUSH1 0x1 PUSH1 0x0 DUP4 DUP2 MSTORE PUSH1 0x20 ADD SWAP1 DUP2 MSTORE PUSH1 0x20 ADD PUSH1 0x0 KECCAK256 SWAP1 POP PUSH1 0x4 PUSH1 0x0 CALLER PUSH20 0xFFFFFFFFFFFFFFFFFFFFFFFFFFFFFFFFFFFFFFFF AND PUSH20 0xFFFFFFFFFFFFFFFFFFFFFFFFFFFFFFFFFFFFFFFF AND DUP2 MSTORE PUSH1 0x20 ADD SWAP1 DUP2 MSTORE PUSH1 0x20 ADD PUSH1 0x0 KECCAK256 PUSH1 0x0 SWAP1 SLOAD SWAP1 PUSH2 0x100 EXP SWAP1 DIV PUSH1 0xFF AND PUSH2 0x742 JUMPI PUSH1 0x0 DUP1 REVERT JUMPDEST DUP1 PUSH1 0x4 ADD PUSH1 0x0 CALLER PUSH20 0xFFFFFFFFFFFFFFFFFFFFFFFFFFFFFFFFFFFFFFFF AND PUSH20 0xFFFFFFFFFFFFFFFFFFFFFFFFFFFFFFFFFFFFFFFF AND DUP2 MSTORE PUSH1 0x20 ADD SWAP1 DUP2 MSTORE PUSH1 0x20 ADD PUSH1 0x0 KECCAK256 PUSH1 0x0 SWAP1 SLOAD SWAP1 PUSH2 0x100 EXP SWAP1 DIV PUSH1 0xFF AND ISZERO PUSH2 0x79B JUMPI PUSH1 0x0 DUP1 REVERT JUMPDEST PUSH1 0x1 DUP2 PUSH1 0x4 ADD PUSH1 0x0 CALLER PUSH20 0xFFFFFFFFFFFFFFFFFFFFFFFFFFFFFFFFFFFFFFFF AND PUSH20 0xFFFFFFFFFFFFFFFFFFFFFFFFFFFFFFFFFFFFFFFF AND DUP2 MSTORE PUSH1 0x20 ADD SWAP1 DUP2 MSTORE PUSH1 0x20 ADD PUSH1 0x0 KECCAK256 PUSH1 0x0 PUSH2 0x100 EXP DUP2 SLOAD DUP2 PUSH1 0xFF MUL NOT AND SWAP1 DUP4 ISZERO ISZERO MUL OR SWAP1 SSTORE POP DUP1 PUSH1 0x3 ADD PUSH1 0x0 DUP2 SLOAD DUP1 SWAP3 SWAP2 SWAP1 PUSH2 0x80A SWAP1 PUSH2 0xDC5 JUMP JUMPDEST SWAP2 SWAP1 POP SSTORE POP POP POP JUMP JUMPDEST PUSH1 0x0 PUSH1 0x40 MLOAD SWAP1 POP SWAP1 JUMP JUMPDEST PUSH1 0x0 DUP1 REVERT JUMPDEST PUSH1 0x0 DUP1 REVERT JUMPDEST PUSH1 0x0 DUP2 SWAP1 POP SWAP2 SWAP1 POP JUMP JUMPDEST PUSH2 0x83A DUP2 PUSH2 0x827 JUMP JUMPDEST DUP2 EQ PUSH2 0x845 JUMPI PUSH1 0x0 DUP1 REVERT JUMPDEST POP JUMP JUMPDEST PUSH1 0x0 DUP2 CALLDATALOAD SWAP1 POP PUSH2 0x857 DUP2 PUSH2 0x831 JUMP JUMPDEST SWAP3 SWAP2 POP POP JUMP JUMPDEST PUSH1 0x0 PUSH1 0x20 DUP3 DUP5 SUB SLT ISZERO PUSH2 0x873 JUMPI PUSH2 0x872 PUSH2 0x81D JUMP JUMPDEST JUMPDEST PUSH1 0x0 PUSH2 0x881 DUP5 DUP3 DUP6 ADD PUSH2 0x848 JUMP JUMPDEST SWAP2 POP POP SWAP3 SWAP2 POP POP JUMP JUMPDEST PUSH1 0x0 PUSH20 0xFFFFFFFFFFFFFFFFFFFFFFFFFFFFFFFFFFFFFFFF DUP3 AND SWAP1 POP SWAP2 SWAP1 POP JUMP JUMPDEST PUSH1 0x0 PUSH2 0x8B5 DUP3 PUSH2 0x88A JUMP JUMPDEST SWAP1 POP SWAP2 SWAP1 POP JUMP JUMPDEST PUSH2 0x8C5 DUP2 PUSH2 0x8AA JUMP JUMPDEST DUP2 EQ PUSH2 0x8D0 JUMPI PUSH1 0x0 DUP1 REVERT JUMPDEST POP JUMP JUMPDEST PUSH1 0x0 DUP2 CALLDATALOAD SWAP1 POP PUSH2 0x8E2 DUP2 PUSH2 0x8BC JUMP JUMPDEST SWAP3 SWAP2 POP POP JUMP JUMPDEST PUSH1 0x0 PUSH1 0x20 DUP3 DUP5 SUB SLT ISZERO PUSH2 0x8FE JUMPI PUSH2 0x8FD PUSH2 0x81D JUMP JUMPDEST JUMPDEST PUSH1 0x0 PUSH2 0x90C DUP5 DUP3 DUP6 ADD PUSH2 0x8D3 JUMP JUMPDEST SWAP2 POP POP SWAP3 SWAP2 POP POP JUMP JUMPDEST PUSH1 0x0 DUP2 ISZERO ISZERO SWAP1 POP SWAP2 SWAP1 POP JUMP JUMPDEST PUSH2 0x92A DUP2 PUSH2 0x915 JUMP JUMPDEST DUP3 MSTORE POP POP JUMP JUMPDEST PUSH1 0x0 PUSH1 0x20 DUP3 ADD SWAP1 POP PUSH2 0x945 PUSH1 0x0 DUP4 ADD DUP5 PUSH2 0x921 JUMP JUMPDEST SWAP3 SWAP2 POP POP JUMP JUMPDEST PUSH2 0x954 DUP2 PUSH2 0x827 JUMP JUMPDEST DUP3 MSTORE POP POP JUMP JUMPDEST PUSH2 0x963 DUP2 PUSH2 0x8AA JUMP JUMPDEST DUP3 MSTORE POP POP JUMP JUMPDEST PUSH1 0x0 PUSH1 0xA0 DUP3 ADD SWAP1 POP PUSH2 0x97E PUSH1 0x0 DUP4 ADD DUP9 PUSH2 0x94B JUMP JUMPDEST PUSH2 0x98B PUSH1 0x20 DUP4 ADD DUP8 PUSH2 0x94B JUMP JUMPDEST PUSH2 0x998 PUSH1 0x40 DUP4 ADD DUP7 PUSH2 0x94B JUMP JUMPDEST PUSH2 0x9A5 PUSH1 0x60 DUP4 ADD DUP6 PUSH2 0x94B JUMP JUMPDEST PUSH2 0x9B2 PUSH1 0x80 DUP4 ADD DUP5 PUSH2 0x95A JUMP JUMPDEST SWAP7 SWAP6 POP POP POP POP POP POP JUMP JUMPDEST PUSH1 0x0 PUSH1 0x20 DUP3 ADD SWAP1 POP PUSH2 0x9D1 PUSH1 0x0 DUP4 ADD DUP5 PUSH2 0x95A JUMP JUMPDEST SWAP3 SWAP2 POP POP JUMP JUMPDEST PUSH1 0x0 DUP2 MLOAD SWAP1 POP SWAP2 SWAP1 POP JUMP JUMPDEST PUSH1 0x0 DUP3 DUP3 MSTORE PUSH1 0x20 DUP3 ADD SWAP1 POP SWAP3 SWAP2 POP POP JUMP JUMPDEST PUSH1 0x0 JUMPDEST DUP4 DUP2 LT ISZERO PUSH2 0xA11 JUMPI DUP1 DUP3 ADD MLOAD DUP2 DUP5 ADD MSTORE PUSH1 0x20 DUP2 ADD SWAP1 POP PUSH2 0x9F6 JUMP JUMPDEST DUP4 DUP2 GT ISZERO PUSH2 0xA20 JUMPI PUSH1 0x0 DUP5 DUP5 ADD MSTORE JUMPDEST POP POP POP POP JUMP JUMPDEST PUSH1 0x0 PUSH1 0x1F NOT PUSH1 0x1F DUP4 ADD AND SWAP1 POP SWAP2 SWAP1 POP JUMP JUMPDEST PUSH1 0x0 PUSH2 0xA42 DUP3 PUSH2 0x9D7 JUMP JUMPDEST PUSH2 0xA4C DUP2 DUP6 PUSH2 0x9E2 JUMP JUMPDEST SWAP4 POP PUSH2 0xA5C DUP2 DUP6 PUSH1 0x20 DUP7 ADD PUSH2 0x9F3 JUMP JUMPDEST PUSH2 0xA65 DUP2 PUSH2 0xA26 JUMP JUMPDEST DUP5 ADD SWAP2 POP POP SWAP3 SWAP2 POP POP JUMP JUMPDEST PUSH1 0x0 PUSH2 0xA7B DUP3 PUSH2 0x88A JUMP JUMPDEST SWAP1 POP SWAP2 SWAP1 POP JUMP JUMPDEST PUSH2 0xA8B DUP2 PUSH2 0xA70 JUMP JUMPDEST DUP3 MSTORE POP POP JUMP JUMPDEST PUSH1 0x0 PUSH1 0xA0 DUP3 ADD SWAP1 POP DUP2 DUP2 SUB PUSH1 0x0 DUP4 ADD MSTORE PUSH2 0xAAB DUP2 DUP9 PUSH2 0xA37 JUMP JUMPDEST SWAP1 POP PUSH2 0xABA PUSH1 0x20 DUP4 ADD DUP8 PUSH2 0x94B JUMP JUMPDEST PUSH2 0xAC7 PUSH1 0x40 DUP4 ADD DUP7 PUSH2 0xA82 JUMP JUMPDEST PUSH2 0xAD4 PUSH1 0x60 DUP4 ADD DUP6 PUSH2 0x921 JUMP JUMPDEST PUSH2 0xAE1 PUSH1 0x80 DUP4 ADD DUP5 PUSH2 0x94B JUMP JUMPDEST SWAP7 SWAP6 POP POP POP POP POP POP JUMP JUMPDEST PUSH1 0x0 PUSH1 0x20 DUP3 ADD SWAP1 POP PUSH2 0xB00 PUSH1 0x0 DUP4 ADD DUP5 PUSH2 0x94B JUMP JUMPDEST SWAP3 SWAP2 POP POP JUMP JUMPDEST PUSH1 0x0 DUP1 REVERT JUMPDEST PUSH1 0x0 DUP1 REVERT JUMPDEST PUSH32 0x4E487B7100000000000000000000000000000000000000000000000000000000 PUSH1 0x0 MSTORE PUSH1 0x41 PUSH1 0x4 MSTORE PUSH1 0x24 PUSH1 0x0 REVERT JUMPDEST PUSH2 0xB48 DUP3 PUSH2 0xA26 JUMP JUMPDEST DUP2 ADD DUP2 DUP2 LT PUSH8 0xFFFFFFFFFFFFFFFF DUP3 GT OR ISZERO PUSH2 0xB67 JUMPI PUSH2 0xB66 PUSH2 0xB10 JUMP JUMPDEST JUMPDEST DUP1 PUSH1 0x40 MSTORE POP POP POP JUMP JUMPDEST PUSH1 0x0 PUSH2 0xB7A PUSH2 0x813 JUMP JUMPDEST SWAP1 POP PUSH2 0xB86 DUP3 DUP3 PUSH2 0xB3F JUMP JUMPDEST SWAP2 SWAP1 POP JUMP JUMPDEST PUSH1 0x0 PUSH8 0xFFFFFFFFFFFFFFFF DUP3 GT ISZERO PUSH2 0xBA6 JUMPI PUSH2 0xBA5 PUSH2 0xB10 JUMP JUMPDEST JUMPDEST PUSH2 0xBAF DUP3 PUSH2 0xA26 JUMP JUMPDEST SWAP1 POP PUSH1 0x20 DUP2 ADD SWAP1 POP SWAP2 SWAP1 POP JUMP JUMPDEST DUP3 DUP2 DUP4 CALLDATACOPY PUSH1 0x0 DUP4 DUP4 ADD MSTORE POP POP POP JUMP JUMPDEST PUSH1 0x0 PUSH2 0xBDE PUSH2 0xBD9 DUP5 PUSH2 0xB8B JUMP JUMPDEST PUSH2 0xB70 JUMP JUMPDEST SWAP1 POP DUP3 DUP2 MSTORE PUSH1 0x20 DUP2 ADD DUP5 DUP5 DUP5 ADD GT ISZERO PUSH2 0xBFA JUMPI PUSH2 0xBF9 PUSH2 0xB0B JUMP JUMPDEST JUMPDEST PUSH2 0xC05 DUP5 DUP3 DUP6 PUSH2 0xBBC JUMP JUMPDEST POP SWAP4 SWAP3 POP POP POP JUMP JUMPDEST PUSH1 0x0 DUP3 PUSH1 0x1F DUP4 ADD SLT PUSH2 0xC22 JUMPI PUSH2 0xC21 PUSH2 0xB06 JUMP JUMPDEST JUMPDEST DUP2 CALLDATALOAD PUSH2 0xC32 DUP5 DUP3 PUSH1 0x20 DUP7 ADD PUSH2 0xBCB JUMP JUMPDEST SWAP2 POP POP SWAP3 SWAP2 POP POP JUMP JUMPDEST PUSH2 0xC44 DUP2 PUSH2 0xA70 JUMP JUMPDEST DUP2 EQ PUSH2 0xC4F JUMPI PUSH1 0x0 DUP1 REVERT JUMPDEST POP JUMP JUMPDEST PUSH1 0x0 DUP2 CALLDATALOAD SWAP1 POP PUSH2 0xC61 DUP2 PUSH2 0xC3B JUMP JUMPDEST SWAP3 SWAP2 POP POP JUMP JUMPDEST PUSH1 0x0 DUP1 PUSH1 0x0 PUSH1 0x60 DUP5 DUP7 SUB SLT ISZERO PUSH2 0xC80 JUMPI PUSH2 0xC7F PUSH2 0x81D JUMP JUMPDEST JUMPDEST PUSH1 0x0 DUP5 ADD CALLDATALOAD PUSH8 0xFFFFFFFFFFFFFFFF DUP2 GT ISZERO PUSH2 0xC9E JUMPI PUSH2 0xC9D PUSH2 0x822 JUMP JUMPDEST JUMPDEST PUSH2 0xCAA DUP7 DUP3 DUP8 ADD PUSH2 0xC0D JUMP JUMPDEST SWAP4 POP POP PUSH1 0x20 PUSH2 0xCBB DUP7 DUP3 DUP8 ADD PUSH2 0x848 JUMP JUMPDEST SWAP3 POP POP PUSH1 0x40 PUSH2 0xCCC DUP7 DUP3 DUP8 ADD PUSH2 0xC52 JUMP JUMPDEST SWAP2 POP POP SWAP3 POP SWAP3 POP SWAP3 JUMP JUMPDEST PUSH32 0x4E487B7100000000000000000000000000000000000000000000000000000000 PUSH1 0x0 MSTORE PUSH1 0x12 PUSH1 0x4 MSTORE PUSH1 0x24 PUSH1 0x0 REVERT JUMPDEST PUSH32 0x4E487B7100000000000000000000000000000000000000000000000000000000 PUSH1 0x0 MSTORE PUSH1 0x11 PUSH1 0x4 MSTORE PUSH1 0x24 PUSH1 0x0 REVERT JUMPDEST PUSH1 0x0 PUSH2 0xD3F DUP3 PUSH2 0x827 JUMP JUMPDEST SWAP2 POP PUSH2 0xD4A DUP4 PUSH2 0x827 JUMP JUMPDEST SWAP3 POP DUP3 PUSH2 0xD5A JUMPI PUSH2 0xD59 PUSH2 0xCD6 JUMP JUMPDEST JUMPDEST DUP3 DUP3 DIV SWAP1 POP SWAP3 SWAP2 POP POP JUMP JUMPDEST PUSH32 0x4E487B7100000000000000000000000000000000000000000000000000000000 PUSH1 0x0 MSTORE PUSH1 0x22 PUSH1 0x4 MSTORE PUSH1 0x24 PUSH1 0x0 REVERT JUMPDEST PUSH1 0x0 PUSH1 0x2 DUP3 DIV SWAP1 POP PUSH1 0x1 DUP3 AND DUP1 PUSH2 0xDAC JUMPI PUSH1 0x7F DUP3 AND SWAP2 POP JUMPDEST PUSH1 0x20 DUP3 LT DUP2 SUB PUSH2 0xDBF JUMPI PUSH2 0xDBE PUSH2 0xD65 JUMP JUMPDEST JUMPDEST POP SWAP2 SWAP1 POP JUMP JUMPDEST PUSH1 0x0 PUSH2 0xDD0 DUP3 PUSH2 0x827 JUMP JUMPDEST SWAP2 POP PUSH32 0xFFFFFFFFFFFFFFFFFFFFFFFFFFFFFFFFFFFFFFFFFFFFFFFFFFFFFFFFFFFFFFFF DUP3 SUB PUSH2 0xE02 JUMPI PUSH2 0xE01 PUSH2 0xD05 JUMP JUMPDEST JUMPDEST PUSH1 0x1 DUP3 ADD SWAP1 POP SWAP2 SWAP1 POP JUMP JUMPDEST PUSH1 0x0 DUP2 SWAP1 POP DUP2 PUSH1 0x0 MSTORE PUSH1 0x20 PUSH1 0x0 KECCAK256 SWAP1 POP SWAP2 SWAP1 POP JUMP JUMPDEST PUSH1 0x0 PUSH1 0x20 PUSH1 0x1F DUP4 ADD DIV SWAP1 POP SWAP2 SWAP1 POP JUMP JUMPDEST PUSH1 0x0 DUP3 DUP3 SHL SWAP1 POP SWAP3 SWAP2 POP POP JUMP JUMPDEST PUSH1 0x0 PUSH1 0x8 DUP4 MUL PUSH2 0xE6F PUSH32 0xFFFFFFFFFFFFFFFFFFFFFFFFFFFFFFFFFFFFFFFFFFFFFFFFFFFFFFFFFFFFFFFF DUP3 PUSH2 0xE32 JUMP JUMPDEST PUSH2 0xE79 DUP7 DUP4 PUSH2 0xE32 JUMP JUMPDEST SWAP6 POP DUP1 NOT DUP5 AND SWAP4 POP DUP1 DUP7 AND DUP5 OR SWAP3 POP POP POP SWAP4 SWAP3 POP POP POP JUMP JUMPDEST PUSH1 0x0 DUP2 SWAP1 POP SWAP2 SWAP1 POP JUMP JUMPDEST PUSH1 0x0 PUSH2 0xEB6 PUSH2 0xEB1 PUSH2 0xEAC DUP5 PUSH2 0x827 JUMP JUMPDEST PUSH2 0xE91 JUMP JUMPDEST PUSH2 0x827 JUMP JUMPDEST SWAP1 POP SWAP2 SWAP1 POP JUMP JUMPDEST PUSH1 0x0 DUP2 SWAP1 POP SWAP2 SWAP1 POP JUMP JUMPDEST PUSH2 0xED0 DUP4 PUSH2 0xE9B JUMP JUMPDEST PUSH2 0xEE4 PUSH2 0xEDC DUP3 PUSH2 0xEBD JUMP JUMPDEST DUP5 DUP5 SLOAD PUSH2 0xE3F JUMP JUMPDEST DUP3 SSTORE POP POP POP POP JUMP JUMPDEST PUSH1 0x0 SWAP1 JUMP JUMPDEST PUSH2 0xEF9 PUSH2 0xEEC JUMP JUMPDEST PUSH2 0xF04 DUP2 DUP5 DUP5 PUSH2 0xEC7 JUMP JUMPDEST POP POP POP JUMP JUMPDEST JUMPDEST DUP2 DUP2 LT ISZERO PUSH2 0xF28 JUMPI PUSH2 0xF1D PUSH1 0x0 DUP3 PUSH2 0xEF1 JUMP JUMPDEST PUSH1 0x1 DUP2 ADD SWAP1 POP PUSH2 0xF0A JUMP JUMPDEST POP POP JUMP JUMPDEST PUSH1 0x1F DUP3 GT ISZERO PUSH2 0xF6D JUMPI PUSH2 0xF3E DUP2 PUSH2 0xE0D JUMP JUMPDEST PUSH2 0xF47 DUP5 PUSH2 0xE22 JUMP JUMPDEST DUP2 ADD PUSH1 0x20 DUP6 LT ISZERO PUSH2 0xF56 JUMPI DUP2 SWAP1 POP JUMPDEST PUSH2 0xF6A PUSH2 0xF62 DUP6 PUSH2 0xE22 JUMP JUMPDEST DUP4 ADD DUP3 PUSH2 0xF09 JUMP JUMPDEST POP POP JUMPDEST POP POP POP JUMP JUMPDEST PUSH1 0x0 DUP3 DUP3 SHR SWAP1 POP SWAP3 SWAP2 POP POP JUMP JUMPDEST PUSH1 0x0 PUSH2 0xF90 PUSH1 0x0 NOT DUP5 PUSH1 0x8 MUL PUSH2 0xF72 JUMP JUMPDEST NOT DUP1 DUP4 AND SWAP2 POP POP SWAP3 SWAP2 POP POP JUMP JUMPDEST PUSH1 0x0 PUSH2 0xFA9 DUP4 DUP4 PUSH2 0xF7F JUMP JUMPDEST SWAP2 POP DUP3 PUSH1 0x2 MUL DUP3 OR SWAP1 POP SWAP3 SWAP2 POP POP JUMP JUMPDEST PUSH2 0xFC2 DUP3 PUSH2 0x9D7 JUMP JUMPDEST PUSH8 0xFFFFFFFFFFFFFFFF DUP2 GT ISZERO PUSH2 0xFDB JUMPI PUSH2 0xFDA PUSH2 0xB10 JUMP JUMPDEST JUMPDEST PUSH2 0xFE5 DUP3 SLOAD PUSH2 0xD94 JUMP JUMPDEST PUSH2 0xFF0 DUP3 DUP3 DUP6 PUSH2 0xF2C JUMP JUMPDEST PUSH1 0x0 PUSH1 0x20 SWAP1 POP PUSH1 0x1F DUP4 GT PUSH1 0x1 DUP2 EQ PUSH2 0x1023 JUMPI PUSH1 0x0 DUP5 ISZERO PUSH2 0x1011 JUMPI DUP3 DUP8 ADD MLOAD SWAP1 POP JUMPDEST PUSH2 0x101B DUP6 DUP3 PUSH2 0xF9D JUMP JUMPDEST DUP7 SSTORE POP PUSH2 0x1083 JUMP JUMPDEST PUSH1 0x1F NOT DUP5 AND PUSH2 0x1031 DUP7 PUSH2 0xE0D JUMP JUMPDEST PUSH1 0x0 JUMPDEST DUP3 DUP2 LT ISZERO PUSH2 0x1059 JUMPI DUP5 DUP10 ADD MLOAD DUP3 SSTORE PUSH1 0x1 DUP3 ADD SWAP2 POP PUSH1 0x20 DUP6 ADD SWAP5 POP PUSH1 0x20 DUP2 ADD SWAP1 POP PUSH2 0x1034 JUMP JUMPDEST DUP7 DUP4 LT ISZERO PUSH2 0x1076 JUMPI DUP5 DUP10 ADD MLOAD PUSH2 0x1072 PUSH1 0x1F DUP10 AND DUP3 PUSH2 0xF7F JUMP JUMPDEST DUP4 SSTORE POP JUMPDEST PUSH1 0x1 PUSH1 0x2 DUP9 MUL ADD DUP9 SSTORE POP POP POP JUMPDEST POP POP POP POP POP POP JUMP INVALID LOG2 PUSH5 0x6970667358 0x22 SLT KECCAK256 SWAP8 0xF 0xAC 0xDB PUSH9 0x71997F197BBE05025C MOD ORIGIN 0xD3 0xED SSTORE ISZERO SWAP15 PUSH24 0xF2A7DE9FC06F49DA72C664736F6C634300080F0033000000 "},"gasEstimates":{"creation":{"codeDepositCost":"857800","executionCost":"infinite","totalCost":"infinite"},"external":{"approveRequest(uint256)":"infinite","approvers(address)":"2868","approversCount()":"2429","contribute()":"51046","createRequest(string,uint256,address)":"infinite","finalizeRequest(uint256)":"infinite","getSummary()":"infinite","manager()":"2581","minimumContribution()":"2473","numRequest()":"2495","requests(uint256)":"infinite"}},"methodIdentifiers":{"approveRequest(uint256)":"d7d1bbdb","approvers(address)":"0a144391","approversCount()":"82fde093","contribute()":"d7bb99ba","createRequest(string,uint256,address)":"8a9cfd55","finalizeRequest(uint256)":"03441006","getSummary()":"4051ddac","manager()":"481c6a75","minimumContribution()":"937e09b1","numRequest()":"b1b16431","requests(uint256)":"81d12c58"}}}